{
  "_format": "hh-sol-artifact-1",
  "contractName": "Staking",
  "sourceName": "contracts/Staking.sol",
  "abi": [
    {
      "anonymous": false,
      "inputs": [
        {
          "indexed": false,
          "internalType": "uint8",
          "name": "version",
          "type": "uint8"
        }
      ],
      "name": "Initialized",
      "type": "event"
    },
    {
      "anonymous": false,
      "inputs": [
        {
          "indexed": true,
          "internalType": "address",
          "name": "owner",
          "type": "address"
        },
        {
          "indexed": true,
          "internalType": "address",
          "name": "talentToken",
          "type": "address"
        },
        {
          "indexed": false,
          "internalType": "uint256",
          "name": "stakerReward",
          "type": "uint256"
        },
        {
          "indexed": false,
          "internalType": "uint256",
          "name": "talentReward",
          "type": "uint256"
        }
      ],
      "name": "RewardClaim",
      "type": "event"
    },
    {
      "anonymous": false,
      "inputs": [
        {
          "indexed": true,
          "internalType": "address",
          "name": "owner",
          "type": "address"
        },
        {
          "indexed": true,
          "internalType": "address",
          "name": "talentToken",
          "type": "address"
        },
        {
          "indexed": false,
          "internalType": "uint256",
          "name": "stakerReward",
          "type": "uint256"
        },
        {
          "indexed": false,
          "internalType": "uint256",
          "name": "talentReward",
          "type": "uint256"
        }
      ],
      "name": "RewardWithdrawal",
      "type": "event"
    },
    {
      "anonymous": false,
      "inputs": [
        {
          "indexed": true,
          "internalType": "bytes32",
          "name": "role",
          "type": "bytes32"
        },
        {
          "indexed": true,
          "internalType": "bytes32",
          "name": "previousAdminRole",
          "type": "bytes32"
        },
        {
          "indexed": true,
          "internalType": "bytes32",
          "name": "newAdminRole",
          "type": "bytes32"
        }
      ],
      "name": "RoleAdminChanged",
      "type": "event"
    },
    {
      "anonymous": false,
      "inputs": [
        {
          "indexed": true,
          "internalType": "bytes32",
          "name": "role",
          "type": "bytes32"
        },
        {
          "indexed": true,
          "internalType": "address",
          "name": "account",
          "type": "address"
        },
        {
          "indexed": true,
          "internalType": "address",
          "name": "sender",
          "type": "address"
        }
      ],
      "name": "RoleGranted",
      "type": "event"
    },
    {
      "anonymous": false,
      "inputs": [
        {
          "indexed": true,
          "internalType": "bytes32",
          "name": "role",
          "type": "bytes32"
        },
        {
          "indexed": true,
          "internalType": "address",
          "name": "account",
          "type": "address"
        },
        {
          "indexed": true,
          "internalType": "address",
          "name": "sender",
          "type": "address"
        }
      ],
      "name": "RoleRevoked",
      "type": "event"
    },
    {
      "anonymous": false,
      "inputs": [
        {
          "indexed": true,
          "internalType": "address",
          "name": "owner",
          "type": "address"
        },
        {
          "indexed": true,
          "internalType": "address",
          "name": "talentToken",
          "type": "address"
        },
        {
          "indexed": false,
          "internalType": "uint256",
          "name": "talAmount",
          "type": "uint256"
        },
        {
          "indexed": false,
          "internalType": "bool",
          "name": "stable",
          "type": "bool"
        }
      ],
      "name": "Stake",
      "type": "event"
    },
    {
      "anonymous": false,
      "inputs": [
        {
          "indexed": true,
          "internalType": "address",
          "name": "talent",
          "type": "address"
        },
        {
          "indexed": false,
          "internalType": "uint256",
          "name": "newChainId",
          "type": "uint256"
        }
      ],
      "name": "TalentDisabledForNetworkTransfer",
      "type": "event"
    },
    {
      "anonymous": false,
      "inputs": [
        {
          "indexed": true,
          "internalType": "address",
          "name": "talentToken",
          "type": "address"
        },
        {
          "indexed": true,
          "internalType": "address",
          "name": "talentTokenWallet",
          "type": "address"
        },
        {
          "indexed": false,
          "internalType": "uint256",
          "name": "reward",
          "type": "uint256"
        }
      ],
      "name": "TalentRewardWithdrawal",
      "type": "event"
    },
    {
      "anonymous": false,
      "inputs": [
        {
          "indexed": true,
          "internalType": "address",
          "name": "owner",
          "type": "address"
        },
        {
          "indexed": true,
          "internalType": "address",
          "name": "talentToken",
          "type": "address"
        },
        {
          "indexed": false,
          "internalType": "uint256",
          "name": "talAmount",
          "type": "uint256"
        }
      ],
      "name": "Unstake",
      "type": "event"
    },
    {
      "inputs": [],
      "name": "DEFAULT_ADMIN_ROLE",
      "outputs": [
        {
          "internalType": "bytes32",
          "name": "",
          "type": "bytes32"
        }
      ],
      "stateMutability": "view",
      "type": "function"
    },
    {
      "inputs": [],
      "name": "S",
      "outputs": [
        {
          "internalType": "uint256",
          "name": "",
          "type": "uint256"
        }
      ],
      "stateMutability": "view",
      "type": "function"
    },
    {
      "inputs": [],
      "name": "SAt",
      "outputs": [
        {
          "internalType": "uint256",
          "name": "",
          "type": "uint256"
        }
      ],
      "stateMutability": "view",
      "type": "function"
    },
    {
      "inputs": [],
      "name": "__RewardCalculator_init",
      "outputs": [],
      "stateMutability": "nonpayable",
      "type": "function"
    },
    {
      "inputs": [
        {
          "internalType": "address",
          "name": "_stableCoin",
          "type": "address"
        }
      ],
      "name": "__StableThenToken_init",
      "outputs": [],
      "stateMutability": "nonpayable",
      "type": "function"
    },
    {
      "inputs": [],
      "name": "activeStakes",
      "outputs": [
        {
          "internalType": "uint256",
          "name": "",
          "type": "uint256"
        }
      ],
      "stateMutability": "view",
      "type": "function"
    },
    {
      "inputs": [],
      "name": "adminWithdraw",
      "outputs": [],
      "stateMutability": "nonpayable",
      "type": "function"
    },
    {
      "inputs": [
        {
          "internalType": "address",
          "name": "_owner",
          "type": "address"
        },
        {
          "internalType": "address",
          "name": "_talent",
          "type": "address"
        },
        {
          "internalType": "uint256",
          "name": "_currentTime",
          "type": "uint256"
        }
      ],
      "name": "calculateEstimatedReturns",
      "outputs": [
        {
          "internalType": "uint256",
          "name": "stakerRewards",
          "type": "uint256"
        },
        {
          "internalType": "uint256",
          "name": "talentRewards",
          "type": "uint256"
        }
      ],
      "stateMutability": "view",
      "type": "function"
    },
    {
      "inputs": [
        {
          "internalType": "address",
          "name": "_talent",
          "type": "address"
        }
      ],
      "name": "claimRewards",
      "outputs": [
        {
          "internalType": "bool",
          "name": "",
          "type": "bool"
        }
      ],
      "stateMutability": "nonpayable",
      "type": "function"
    },
    {
      "inputs": [
        {
          "internalType": "address",
          "name": "_owner",
          "type": "address"
        },
        {
          "internalType": "address",
          "name": "_talent",
          "type": "address"
        }
      ],
      "name": "claimRewardsOnBehalf",
      "outputs": [
        {
          "internalType": "bool",
          "name": "",
          "type": "bool"
        }
      ],
      "stateMutability": "nonpayable",
      "type": "function"
    },
    {
      "inputs": [
        {
          "internalType": "uint256",
          "name": "_talent",
          "type": "uint256"
        }
      ],
      "name": "convertTalentToToken",
      "outputs": [
        {
          "internalType": "uint256",
          "name": "",
          "type": "uint256"
        }
      ],
      "stateMutability": "view",
      "type": "function"
    },
    {
      "inputs": [
        {
          "internalType": "uint256",
          "name": "_tal",
          "type": "uint256"
        }
      ],
      "name": "convertTokenToTalent",
      "outputs": [
        {
          "internalType": "uint256",
          "name": "",
          "type": "uint256"
        }
      ],
      "stateMutability": "view",
      "type": "function"
    },
    {
      "inputs": [
        {
          "internalType": "uint256",
          "name": "_usd",
          "type": "uint256"
        }
      ],
      "name": "convertUsdToTalent",
      "outputs": [
        {
          "internalType": "uint256",
          "name": "",
          "type": "uint256"
        }
      ],
      "stateMutability": "view",
      "type": "function"
    },
    {
      "inputs": [
        {
          "internalType": "uint256",
          "name": "_usd",
          "type": "uint256"
        }
      ],
      "name": "convertUsdToToken",
      "outputs": [
        {
          "internalType": "uint256",
          "name": "",
          "type": "uint256"
        }
      ],
      "stateMutability": "view",
      "type": "function"
    },
    {
      "inputs": [],
      "name": "disable",
      "outputs": [],
      "stateMutability": "nonpayable",
      "type": "function"
    },
    {
      "inputs": [],
      "name": "disabled",
      "outputs": [
        {
          "internalType": "bool",
          "name": "",
          "type": "bool"
        }
      ],
      "stateMutability": "view",
      "type": "function"
    },
    {
      "inputs": [],
      "name": "end",
      "outputs": [
        {
          "internalType": "uint256",
          "name": "",
          "type": "uint256"
        }
      ],
      "stateMutability": "view",
      "type": "function"
    },
    {
      "inputs": [],
      "name": "factory",
      "outputs": [
        {
          "internalType": "address",
          "name": "",
          "type": "address"
        }
      ],
      "stateMutability": "view",
      "type": "function"
    },
    {
      "inputs": [
        {
          "internalType": "bytes32",
          "name": "role",
          "type": "bytes32"
        }
      ],
      "name": "getRoleAdmin",
      "outputs": [
        {
          "internalType": "bytes32",
          "name": "",
          "type": "bytes32"
        }
      ],
      "stateMutability": "view",
      "type": "function"
    },
    {
      "inputs": [
        {
          "internalType": "bytes32",
          "name": "role",
          "type": "bytes32"
        },
        {
          "internalType": "uint256",
          "name": "index",
          "type": "uint256"
        }
      ],
      "name": "getRoleMember",
      "outputs": [
        {
          "internalType": "address",
          "name": "",
          "type": "address"
        }
      ],
      "stateMutability": "view",
      "type": "function"
    },
    {
      "inputs": [
        {
          "internalType": "bytes32",
          "name": "role",
          "type": "bytes32"
        }
      ],
      "name": "getRoleMemberCount",
      "outputs": [
        {
          "internalType": "uint256",
          "name": "",
          "type": "uint256"
        }
      ],
      "stateMutability": "view",
      "type": "function"
    },
    {
      "inputs": [
        {
          "internalType": "bytes32",
          "name": "role",
          "type": "bytes32"
        },
        {
          "internalType": "address",
          "name": "account",
          "type": "address"
        }
      ],
      "name": "grantRole",
      "outputs": [],
      "stateMutability": "nonpayable",
      "type": "function"
    },
    {
      "inputs": [
        {
          "internalType": "bytes32",
          "name": "role",
          "type": "bytes32"
        },
        {
          "internalType": "address",
          "name": "account",
          "type": "address"
        }
      ],
      "name": "hasRole",
      "outputs": [
        {
          "internalType": "bool",
          "name": "",
          "type": "bool"
        }
      ],
      "stateMutability": "view",
      "type": "function"
    },
    {
      "inputs": [
        {
          "internalType": "uint256",
          "name": "_start",
          "type": "uint256"
        },
        {
          "internalType": "uint256",
          "name": "_end",
          "type": "uint256"
        },
        {
          "internalType": "uint256",
          "name": "_rewardsMax",
          "type": "uint256"
        },
        {
          "internalType": "address",
          "name": "_stableCoin",
          "type": "address"
        },
        {
          "internalType": "address",
          "name": "_factory",
          "type": "address"
        },
        {
          "internalType": "uint256",
          "name": "_tokenPrice",
          "type": "uint256"
        },
        {
          "internalType": "uint256",
          "name": "_talentPrice",
          "type": "uint256"
        }
      ],
      "name": "initialize",
      "outputs": [],
      "stateMutability": "nonpayable",
      "type": "function"
    },
    {
      "inputs": [
        {
          "internalType": "address",
          "name": "",
          "type": "address"
        }
      ],
      "name": "maxSForTalent",
      "outputs": [
        {
          "internalType": "uint256",
          "name": "",
          "type": "uint256"
        }
      ],
      "stateMutability": "view",
      "type": "function"
    },
    {
      "inputs": [
        {
          "internalType": "address",
          "name": "_talent",
          "type": "address"
        },
        {
          "internalType": "address[]",
          "name": "_stakeholders",
          "type": "address[]"
        },
        {
          "internalType": "uint256[]",
          "name": "_stakeAmounts",
          "type": "uint256[]"
        }
      ],
      "name": "migrateStakes",
      "outputs": [],
      "stateMutability": "nonpayable",
      "type": "function"
    },
    {
      "inputs": [
        {
          "internalType": "address",
          "name": "",
          "type": "address"
        },
        {
          "internalType": "address",
          "name": "_sender",
          "type": "address"
        },
        {
          "internalType": "uint256",
          "name": "_amount",
          "type": "uint256"
        },
        {
          "internalType": "bytes",
          "name": "data",
          "type": "bytes"
        }
      ],
      "name": "onTransferReceived",
      "outputs": [
        {
          "internalType": "bytes4",
          "name": "",
          "type": "bytes4"
        }
      ],
      "stateMutability": "nonpayable",
      "type": "function"
    },
    {
      "inputs": [
        {
          "internalType": "bytes32",
          "name": "role",
          "type": "bytes32"
        },
        {
          "internalType": "address",
          "name": "account",
          "type": "address"
        }
      ],
      "name": "renounceRole",
      "outputs": [],
      "stateMutability": "nonpayable",
      "type": "function"
    },
    {
      "inputs": [
        {
          "internalType": "bytes32",
          "name": "role",
          "type": "bytes32"
        },
        {
          "internalType": "address",
          "name": "account",
          "type": "address"
        }
      ],
      "name": "revokeRole",
      "outputs": [],
      "stateMutability": "nonpayable",
      "type": "function"
    },
    {
      "inputs": [],
      "name": "rewardsGiven",
      "outputs": [
        {
          "internalType": "uint256",
          "name": "",
          "type": "uint256"
        }
      ],
      "stateMutability": "view",
      "type": "function"
    },
    {
      "inputs": [],
      "name": "rewardsLeft",
      "outputs": [
        {
          "internalType": "uint256",
          "name": "",
          "type": "uint256"
        }
      ],
      "stateMutability": "view",
      "type": "function"
    },
    {
      "inputs": [],
      "name": "rewardsMax",
      "outputs": [
        {
          "internalType": "uint256",
          "name": "",
          "type": "uint256"
        }
      ],
      "stateMutability": "view",
      "type": "function"
    },
    {
      "inputs": [
        {
          "internalType": "address",
          "name": "_token",
          "type": "address"
        }
      ],
      "name": "setToken",
      "outputs": [],
      "stateMutability": "nonpayable",
      "type": "function"
    },
    {
      "inputs": [
        {
          "internalType": "uint256",
          "name": "_price",
          "type": "uint256"
        }
      ],
      "name": "setTokenPrice",
      "outputs": [],
      "stateMutability": "nonpayable",
      "type": "function"
    },
    {
      "inputs": [],
      "name": "stableCoin",
      "outputs": [
        {
          "internalType": "address",
          "name": "",
          "type": "address"
        }
      ],
      "stateMutability": "view",
      "type": "function"
    },
    {
      "inputs": [],
      "name": "stableCoinBalance",
      "outputs": [
        {
          "internalType": "uint256",
          "name": "",
          "type": "uint256"
        }
      ],
      "stateMutability": "view",
      "type": "function"
    },
    {
      "inputs": [
        {
          "internalType": "address",
          "name": "_talent",
          "type": "address"
        }
      ],
      "name": "stakeAvailability",
      "outputs": [
        {
          "internalType": "uint256",
          "name": "",
          "type": "uint256"
        }
      ],
      "stateMutability": "view",
      "type": "function"
    },
    {
      "inputs": [
        {
          "internalType": "address",
          "name": "_talent",
          "type": "address"
        },
        {
          "internalType": "uint256",
          "name": "_amount",
          "type": "uint256"
        }
      ],
      "name": "stakeStable",
      "outputs": [
        {
          "internalType": "bool",
          "name": "",
          "type": "bool"
        }
      ],
      "stateMutability": "nonpayable",
      "type": "function"
    },
    {
      "inputs": [
        {
          "internalType": "address",
          "name": "",
          "type": "address"
        },
        {
          "internalType": "address",
          "name": "",
          "type": "address"
        }
      ],
      "name": "stakes",
      "outputs": [
        {
          "internalType": "uint256",
          "name": "tokenAmount",
          "type": "uint256"
        },
        {
          "internalType": "uint256",
          "name": "talentAmount",
          "type": "uint256"
        },
        {
          "internalType": "uint256",
          "name": "lastCheckpointAt",
          "type": "uint256"
        },
        {
          "internalType": "uint256",
          "name": "S",
          "type": "uint256"
        },
        {
          "internalType": "bool",
          "name": "finishedAccumulating",
          "type": "bool"
        }
      ],
      "stateMutability": "view",
      "type": "function"
    },
    {
      "inputs": [],
      "name": "start",
      "outputs": [
        {
          "internalType": "uint256",
          "name": "",
          "type": "uint256"
        }
      ],
      "stateMutability": "view",
      "type": "function"
    },
    {
      "inputs": [
        {
          "internalType": "bytes4",
          "name": "interfaceId",
          "type": "bytes4"
        }
      ],
      "name": "supportsInterface",
      "outputs": [
        {
          "internalType": "bool",
          "name": "",
          "type": "bool"
        }
      ],
      "stateMutability": "view",
      "type": "function"
    },
    {
      "inputs": [
        {
          "internalType": "uint256",
          "name": "_stableAmount",
          "type": "uint256"
        }
      ],
      "name": "swapStableForToken",
      "outputs": [],
      "stateMutability": "nonpayable",
      "type": "function"
    },
    {
      "inputs": [],
      "name": "talentPrice",
      "outputs": [
        {
          "internalType": "uint256",
          "name": "",
          "type": "uint256"
        }
      ],
      "stateMutability": "view",
      "type": "function"
    },
    {
      "inputs": [
        {
          "internalType": "address",
          "name": "",
          "type": "address"
        }
      ],
      "name": "talentRedeemableRewards",
      "outputs": [
        {
          "internalType": "uint256",
          "name": "",
          "type": "uint256"
        }
      ],
      "stateMutability": "view",
      "type": "function"
    },
    {
      "inputs": [],
      "name": "token",
      "outputs": [
        {
          "internalType": "address",
          "name": "",
          "type": "address"
        }
      ],
      "stateMutability": "view",
      "type": "function"
    },
    {
      "inputs": [],
      "name": "tokenBalance",
      "outputs": [
        {
          "internalType": "uint256",
          "name": "",
          "type": "uint256"
        }
      ],
      "stateMutability": "view",
      "type": "function"
    },
    {
      "inputs": [],
      "name": "tokenPrice",
      "outputs": [
        {
          "internalType": "uint256",
          "name": "",
          "type": "uint256"
        }
      ],
      "stateMutability": "view",
      "type": "function"
    },
    {
      "inputs": [],
      "name": "totalAdjustedShares",
      "outputs": [
        {
          "internalType": "uint256",
          "name": "",
          "type": "uint256"
        }
      ],
      "stateMutability": "view",
      "type": "function"
    },
    {
      "inputs": [],
      "name": "totalShares",
      "outputs": [
        {
          "internalType": "uint256",
          "name": "",
          "type": "uint256"
        }
      ],
      "stateMutability": "view",
      "type": "function"
    },
    {
      "inputs": [],
      "name": "totalStableStored",
      "outputs": [
        {
          "internalType": "uint256",
          "name": "",
          "type": "uint256"
        }
      ],
      "stateMutability": "view",
      "type": "function"
    },
    {
      "inputs": [],
      "name": "totalTokensStaked",
      "outputs": [
        {
          "internalType": "uint256",
          "name": "",
          "type": "uint256"
        }
      ],
      "stateMutability": "view",
      "type": "function"
    },
    {
      "inputs": [
        {
          "internalType": "address",
          "name": "_talent",
          "type": "address"
        },
        {
          "internalType": "uint256",
          "name": "_newChainId",
          "type": "uint256"
        }
      ],
      "name": "transferToNetwork",
      "outputs": [],
      "stateMutability": "nonpayable",
      "type": "function"
    },
    {
      "inputs": [
        {
          "internalType": "address",
          "name": "_talent",
          "type": "address"
        }
      ],
      "name": "withdrawRewards",
      "outputs": [
        {
          "internalType": "bool",
          "name": "",
          "type": "bool"
        }
      ],
      "stateMutability": "nonpayable",
      "type": "function"
    },
    {
      "inputs": [
        {
          "internalType": "address",
          "name": "_talent",
          "type": "address"
        }
      ],
      "name": "withdrawTalentRewards",
      "outputs": [
        {
          "internalType": "bool",
          "name": "",
          "type": "bool"
        }
      ],
      "stateMutability": "nonpayable",
      "type": "function"
    }
  ],
  "bytecode": "0x608060405234801561001057600080fd5b5061595480620000216000396000f3fe608060405234801561001057600080fd5b50600436106102e25760003560e01c80639010d07c11610188578063b435842c116100e4578063d547741f11610092578063d547741f14610698578063ed2f2369146106ab578063ee070805146106b4578063ef5cfb8c146106c1578063efbe1c1c146106d4578063f18d20be146106dd578063fc0c546a146106e557600080fd5b8063b435842c14610638578063be9a655514610640578063bf55bd9714610649578063c45a015514610651578063ca15c87314610669578063d19905381461067c578063d4ce57891461068557600080fd5b80639e1a4d19116101415780639e1a4d1914610567578063a217fddf1461056f578063a4e47b6614610577578063a8bc58f2146105ec578063aa0b0179146105f4578063aef2200d1461061c578063b0e31b2d1461062f57600080fd5b80639010d07c146104f2578063904846731461051257806391b70f601461051b57806391d148541461052e578063977bee8e14610541578063992642e51461055457600080fd5b806342c0e5ef116102425780636a61e5fc116101f05780636a61e5fc1461045d57806371f19f94146104705780637773a92b146104835780637eefc525146104a35780637ff9b596146104b657806388a7ca5c146104bf5780638ba2855d146104df57600080fd5b806342c0e5ef146103ec57806342d86693146103ff57806343f49d89146104125780634be1c796146104255780635e7a07521461042e578063683b4430146104415780636a0675cf1461045457600080fd5b80632f2770db1161029f5780632f2770db146103705780632f2ff15d1461037857806335e8041e1461038b57806336568abe1461039e5780633a98ef39146103b15780633b039b9e146103b95780633dbf3563146103cc57600080fd5b806301ffc9a7146102e7578063144fa6d71461030f5780631ea18fc51461032457806322b3a6a11461033b578063248a9ca31461034457806325b58c8714610367575b600080fd5b6102fa6102f5366004614feb565b6106f8565b60405190151581526020015b60405180910390f35b61032261031d366004614d0d565b610709565b005b61032d60d25481565b604051908152602001610306565b61032d60d65481565b61032d610352366004614f8b565b60009081526065602052604090206001015490565b61032d60d35481565b6103226108f4565b610322610386366004614fa4565b61095d565b610322610399366004614e60565b610987565b6103226103ac366004614fa4565b610b98565b60d45461032d565b6102fa6103c7366004614d0d565b610c16565b61032d6103da366004614d0d565b60ce6020526000908152604090205481565b61032d6103fa366004614f8b565b610e6b565b6102fa61040d366004614d0d565b610e8d565b61032d610420366004614d0d565b6110a1565b61032d60db5481565b61032261043c366004614f3d565b6111db565b61032261044f366004614d0d565b611354565b61032d60d85481565b61032261046b366004614f8b565b61148a565b61032261047e366004614f8b565b61149b565b61032d610491366004614d0d565b60cf6020526000908152604090205481565b61032d6104b1366004614f8b565b61165f565b61032d60d15481565b6104d26104cd366004614dc1565b611677565b6040516103069190615206565b6102fa6104ed366004614d47565b6118fa565b610505610500366004614fc9565b611aec565b60405161030691906151b5565b61032d60dc5481565b6103226105293660046150c2565b611b04565b6102fa61053c366004614fa4565b611cc2565b6102fa61054f366004614f3d565b611ced565b60c954610505906001600160a01b031681565b61032d61215f565b61032d600081565b6105c2610585366004614d47565b60cb602090815260009283526040808420909152908252902080546001820154600283015460038401546004909401549293919290919060ff1685565b6040805195865260208601949094529284019190915260608301521515608082015260a001610306565b61032d6121e5565b610607610602366004614d80565b612204565b60408051928352602083019190915201610306565b61032d61062a366004614f8b565b6123ac565b61032d60d45481565b61032d6123ba565b61032d60d95481565b6103226123eb565b60d0546105059061010090046001600160a01b031681565b61032d610677366004614f8b565b61249b565b61032d60d75481565b61032d610693366004614f8b565b6124b2565b6103226106a6366004614fa4565b6124cb565b61032d60cc5481565b60d0546102fa9060ff1681565b6102fa6106cf366004614d0d565b6124f0565b61032d60da5481565b610322612593565b60ca54610505906001600160a01b031681565b600061070382612796565b92915050565b6000610714816127bb565b61071c6127c5565b156107425760405162461bcd60e51b81526004016107399061531e565b60405180910390fd5b6001600160a01b03821661078e5760405162461bcd60e51b81526020600482015260136024820152721059191c995cdcc81b5d5cdd081899481cd95d606a1b6044820152606401610739565b6107a86001600160a01b0383166336372b0760e01b6127d6565b6107ee5760405162461bcd60e51b81526020600482015260176024820152763737ba1030903b30b634b21022a9219918103a37b5b2b760491b6044820152606401610739565b600082905061088c816001600160a01b03166395d89b416040518163ffffffff1660e01b815260040160006040518083038186803b15801561082f57600080fd5b505afa158015610843573d6000803e3d6000fd5b505050506040513d6000823e601f3d908101601f1916820160405261086b9190810190615015565b6040518060400160405280600381526020016215105360ea1b8152506127f2565b6108d05760405162461bcd60e51b81526020600482015260156024820152741d1bdad95b881b985b59481a5cc81b9bdd08151053605a1b6044820152606401610739565b505060ca80546001600160a01b0319166001600160a01b0392909216919091179055565b60006108ff816127bb565b60d05460ff16156109455760405162461bcd60e51b815260206004820152601060248201526f185b1c9958591e48191a5cd8589b195960821b6044820152606401610739565b61094d6127fe565b5060d0805460ff19166001179055565b600082815260656020526040902060010154610978816127bb565b6109828383612843565b505050565b80518251146109e65760405162461bcd60e51b815260206004820152602560248201527f7374616b65686f6c6465727320616e6420616d6f756e747320646f206e6f74206044820152640dac2e8c6d60db1b6064820152608401610739565b60d05460ff1615610a095760405162461bcd60e51b8152600401610739906152eb565b826001600160a01b031663ee0708056040518163ffffffff1660e01b815260040160206040518083038186803b158015610a4257600080fd5b505afa158015610a56573d6000803e3d6000fd5b505050506040513d601f19601f82011682018060405250810190610a7a9190614f69565b15610a975760405162461bcd60e51b81526004016107399061546a565b60005b8251811015610b92576000610ac7838381518110610aba57610aba61587d565b602002602001015161165f565b9050828281518110610adb57610adb61587d565b602002602001015160d36000828254610af49190615537565b92505081905550610b1f848381518110610b1057610b1061587d565b60200260200101518683612865565b846001600160a01b0316848381518110610b3b57610b3b61587d565b60200260200101516001600160a01b03166000805160206158ff833981519152836001604051610b779291909182521515602082015260400190565b60405180910390a35080610b8a8161580a565b915050610a9a565b50505050565b6001600160a01b0381163314610c085760405162461bcd60e51b815260206004820152602f60248201527f416363657373436f6e74726f6c3a2063616e206f6e6c792072656e6f756e636560448201526e103937b632b9903337b91039b2b63360891b6064820152608401610739565b610c1282826129cf565b5050565b6000610c206127c5565b610c3c5760405162461bcd60e51b8152600401610739906152bc565b816001600160a01b031663c4daa5936040518163ffffffff1660e01b815260040160206040518083038186803b158015610c7557600080fd5b505afa158015610c89573d6000803e3d6000fd5b505050506040513d601f19601f82011682018060405250810190610cad9190614d2a565b6001600160a01b0316336001600160a01b031614610d235760405162461bcd60e51b815260206004820152602d60248201527f6f6e6c79207468652074616c656e742063616e2077697468647261772074686560448201526c6972206f776e2073686172657360981b6064820152608401610739565b816001600160a01b031663ee0708056040518163ffffffff1660e01b815260040160206040518083038186803b158015610d5c57600080fd5b505afa158015610d70573d6000803e3d6000fd5b505050506040513d601f19601f82011682018060405250810190610d949190614f69565b15610db15760405162461bcd60e51b81526004016107399061546a565b6001600160a01b03808316600090815260ce6020526040908190205460ca54915163a9059cbb60e01b81529092919091169063a9059cbb90610df990339085906004016151ed565b602060405180830381600087803b158015610e1357600080fd5b505af1158015610e27573d6000803e3d6000fd5b505050506040513d601f19601f82011682018060405250810190610e4b9190614f69565b5050506001600160a01b0316600090815260ce6020526040812055600190565b60d254600090610e8383670de0b6b3a7640000615752565b610703919061557d565b6000610e976127c5565b610eb35760405162461bcd60e51b8152600401610739906152bc565b60dd543390839060ff1615610f6557836001600160a01b031663ee0708056040518163ffffffff1660e01b815260040160206040518083038186803b158015610efb57600080fd5b505afa158015610f0f573d6000803e3d6000fd5b505050506040513d601f19601f82011682018060405250810190610f339190614f69565b15610f505760405162461bcd60e51b81526004016107399061546a565b610f5c338560006129f1565b6001925061109a565b60dd805460ff191660011790556001600160a01b03808316600090815260cb60209081526040808320938516835292905290812054610fa3906133f4565b9050846001600160a01b031663ee0708056040518163ffffffff1660e01b815260040160206040518083038186803b158015610fde57600080fd5b505afa158015610ff2573d6000803e3d6000fd5b505050506040513d601f19601f820116820180604052508101906110169190614f69565b156110335760405162461bcd60e51b81526004016107399061546a565b61103f338660006129f1565b600193506001600160a01b03808416600090815260cb60209081526040808320938616835292905220548190611074906133f4565b60d6546110819190615537565b61108b91906157b0565b60d6555060dd805460ff191690555b5050919050565b60006110ac8261346b565b6110c85760405162461bcd60e51b81526004016107399061534c565b816001600160a01b031663ee0708056040518163ffffffff1660e01b815260040160206040518083038186803b15801561110157600080fd5b505afa158015611115573d6000803e3d6000fd5b505050506040513d601f19601f820116820180604052508101906111399190614f69565b156111565760405162461bcd60e51b81526004016107399061546a565b6000826001600160a01b031663aafa93716040518163ffffffff1660e01b815260040160206040518083038186803b15801561119157600080fd5b505afa1580156111a5573d6000803e3d6000fd5b505050506040513d601f19601f820116820180604052508101906111c991906150a9565b90506111d4816124b2565b9392505050565b816001600160a01b031663c4daa5936040518163ffffffff1660e01b815260040160206040518083038186803b15801561121457600080fd5b505afa158015611228573d6000803e3d6000fd5b505050506040513d601f19601f8201168201806040525081019061124c9190614d2a565b6001600160a01b0316336001600160a01b0316146112ba5760405162461bcd60e51b815260206004820152602560248201527f6f6e6c79207468652074616c656e742063616e2064697361626c6520746865206044820152643a37b5b2b760d91b6064820152608401610739565b816001600160a01b0316632f2770db6040518163ffffffff1660e01b8152600401600060405180830381600087803b1580156112f557600080fd5b505af1158015611309573d6000803e3d6000fd5b50505050816001600160a01b03167f35ab2968b19ad32e6e3a6a56284a1d93810fd54fec17143435a9d194b57be8ab8260405161134891815260200190565b60405180910390a25050565b600054610100900460ff16158080156113745750600054600160ff909116105b8061138e5750303b15801561138e575060005460ff166001145b6113aa5760405162461bcd60e51b81526004016107399061537e565b6000805460ff1916600117905580156113cd576000805461ff0019166101001790555b6001600160a01b03821661142d5760405162461bcd60e51b815260206004820152602160248201527f737461626c652d636f696e2061646472657373206d7573742062652076616c696044820152601960fa1b6064820152608401610739565b60c980546001600160a01b0319166001600160a01b0384161790556114536000336134f1565b8015610c12576000805461ff0019169055604051600181526000805160206158df8339815191529060200160405180910390a15050565b6000611495816127bb565b5060d155565b60006114a6816127bb565b6114ae6127c5565b6114ca5760405162461bcd60e51b8152600401610739906152bc565b60d3548211156115305760405162461bcd60e51b815260206004820152602b60248201527f6e6f7420656e6f75676820737461626c6520636f696e206c65667420696e207460448201526a1a194818dbdb9d1c9858dd60aa1b6064820152608401610739565b600061153b8361165f565b90508260d3600082825461154f91906157b0565b909155505060ca546040516323b872dd60e01b81526001600160a01b03909116906323b872dd90611588903390309086906004016151c9565b602060405180830381600087803b1580156115a257600080fd5b505af11580156115b6573d6000803e3d6000fd5b505050506040513d601f19601f820116820180604052508101906115da9190614f69565b5060c95460405163a9059cbb60e01b81526001600160a01b039091169063a9059cbb9061160d90339087906004016151ed565b602060405180830381600087803b15801561162757600080fd5b505af115801561163b573d6000803e3d6000fd5b505050506040513d601f19601f82011682018060405250810190610b929190614f69565b60d154600090610e8383670de0b6b3a7640000615752565b600060d95442101561169b5760405162461bcd60e51b815260040161073990615285565b60da544211156116bd5760405162461bcd60e51b81526004016107399061524e565b60ca546001600160a01b03163314156117a15760d05460ff16156116f35760405162461bcd60e51b8152600401610739906152eb565b600061173484848080601f0160208091040260200160405190810160405280939291908181526020018383808284376000920191909152506134fb92505050565b9050611741868287612865565b60408051868152600060208201526001600160a01b0380841692908916916000805160206158ff833981519152910160405180910390a37f88a7ca5c75456956db1e96e88ee87aca8bdad85895835c2dc76fcc96396569cf9150506118f1565b6117aa3361346b565b1561189d576117b76127c5565b6118165760405162461bcd60e51b815260206004820152602a60248201527f54414c20746f6b656e206e6f7420796574207365742e20526566756e64206e6f6044820152697420706f737369626c6560b01b6064820152608401610739565b336000611824878388613556565b9050816001600160a01b0316876001600160a01b03167f390b1276974b9463e5d66ab10df69b6f3d7b930eb066a0e66df327edd2cc811c8360405161186b91815260200190565b60405180910390a37f88a7ca5c75456956db1e96e88ee87aca8bdad85895835c2dc76fcc96396569cf925050506118f1565b60405162461bcd60e51b815260206004820152602360248201527f556e7265636f676e697a6564204552433133363320746f6b656e2072656365696044820152621d995960ea1b6064820152608401610739565b95945050505050565b60dd546000908390839060ff16156119af57836001600160a01b031663ee0708056040518163ffffffff1660e01b815260040160206040518083038186803b15801561194557600080fd5b505afa158015611959573d6000803e3d6000fd5b505050506040513d601f19601f8201168201806040525081019061197d9190614f69565b1561199a5760405162461bcd60e51b81526004016107399061546a565b6119a6858560016129f1565b60019250611ae4565b60dd805460ff191660011790556001600160a01b03808316600090815260cb602090815260408083209385168352929052908120546119ed906133f4565b9050846001600160a01b031663ee0708056040518163ffffffff1660e01b815260040160206040518083038186803b158015611a2857600080fd5b505afa158015611a3c573d6000803e3d6000fd5b505050506040513d601f19601f82011682018060405250810190611a609190614f69565b15611a7d5760405162461bcd60e51b81526004016107399061546a565b611a89868660016129f1565b600193506001600160a01b03808416600090815260cb60209081526040808320938616835292905220548190611abe906133f4565b60d654611acb9190615537565b611ad591906157b0565b60d6555060dd805460ff191690555b505092915050565b60008281526097602052604081206111d49083613ac8565b600054610100900460ff1615808015611b245750600054600160ff909116105b80611b3e5750303b158015611b3e575060005460ff166001145b611b5a5760405162461bcd60e51b81526004016107399061537e565b6000805460ff191660011790558015611b7d576000805461ff0019166101001790555b60008311611bc75760405162461bcd60e51b815260206004820152601760248201527605f746f6b656e50726963652063616e6e6f74206265203604c1b6044820152606401610739565b60008211611c125760405162461bcd60e51b815260206004820152601860248201527705f74616c656e7450726963652063616e6e6f7420626520360441b6044820152606401610739565b611c1a613ad4565b611c22613ad4565b611c2a613ad4565b611c3385611354565b611c3b6123eb565b60d988905560da87905560d786905560d08054610100600160a81b0319166101006001600160a01b0387160217905560d183905560d282905560dc889055611c846000336134f1565b8015611cb8576000805461ff0019169055604051600181526000805160206158df8339815191529060200160405180910390a15b5050505050505050565b60009182526065602090815260408084206001600160a01b0393909316845291905290205460ff1690565b600060d954421015611d115760405162461bcd60e51b815260040161073990615285565b60da54421115611d335760405162461bcd60e51b81526004016107399061524e565b611d3b6127c5565b15611d585760405162461bcd60e51b81526004016107399061531e565b60dd543390849060ff1615611f2d5760008411611d875760405162461bcd60e51b8152600401610739906153cc565b60d05460ff1615611daa5760405162461bcd60e51b8152600401610739906152eb565b846001600160a01b031663ee0708056040518163ffffffff1660e01b815260040160206040518083038186803b158015611de357600080fd5b505afa158015611df7573d6000803e3d6000fd5b505050506040513d601f19601f82011682018060405250810190611e1b9190614f69565b15611e385760405162461bcd60e51b81526004016107399061546a565b6000611e438561165f565b90508460d36000828254611e579190615537565b90915550611e689050338783612865565b60c9546040516323b872dd60e01b81526001600160a01b03909116906323b872dd90611e9c90339030908a906004016151c9565b602060405180830381600087803b158015611eb657600080fd5b505af1158015611eca573d6000803e3d6000fd5b505050506040513d601f19601f82011682018060405250810190611eee9190614f69565b5060408051828152600160208201526001600160a01b0388169133916000805160206158ff833981519152910160405180910390a36001935050611ae4565b60dd805460ff191660011790556001600160a01b03808316600090815260cb60209081526040808320938516835292905290812054611f6b906133f4565b905060008511611f8d5760405162461bcd60e51b8152600401610739906153cc565b60d05460ff1615611fb05760405162461bcd60e51b8152600401610739906152eb565b856001600160a01b031663ee0708056040518163ffffffff1660e01b815260040160206040518083038186803b158015611fe957600080fd5b505afa158015611ffd573d6000803e3d6000fd5b505050506040513d601f19601f820116820180604052508101906120219190614f69565b1561203e5760405162461bcd60e51b81526004016107399061546a565b60006120498661165f565b90508560d3600082825461205d9190615537565b9091555061206e9050338883612865565b60c9546040516323b872dd60e01b81526001600160a01b03909116906323b872dd906120a290339030908b906004016151c9565b602060405180830381600087803b1580156120bc57600080fd5b505af11580156120d0573d6000803e3d6000fd5b505050506040513d601f19601f820116820180604052508101906120f49190614f69565b5060408051828152600160208201526001600160a01b0389169133916000805160206158ff833981519152910160405180910390a360019450506001600160a01b03808416600090815260cb60209081526040808320938616835292905220548190611abe906133f4565b60ca546040516370a0823160e01b81526000916001600160a01b0316906370a08231906121909030906004016151b5565b60206040518083038186803b1580156121a857600080fd5b505afa1580156121bc573d6000803e3d6000fd5b505050506040513d601f19601f820116820180604052508101906121e091906150a9565b905090565b600060d55460d85460d7546121fa91906157b0565b6121e091906157b0565b6001600160a01b03808416600090815260cb60209081526040808320938616835292815282822060cf909152918120549091829182901561225e57506001600160a01b038516600090815260cf6020526040902054612287565b60d65461226d60dc5487613b41565b612277919061557d565b60db546122849190615537565b90505b6000866001600160a01b031663c4daa5936040518163ffffffff1660e01b815260040160206040518083038186803b1580156122c257600080fd5b505afa1580156122d6573d6000803e3d6000fd5b505050506040513d601f19601f820116820180604052508101906122fa9190614d2a565b90506000876001600160a01b03166370a08231836040518263ffffffff1660e01b815260040161232a91906151b5565b60206040518083038186803b15801561234257600080fd5b505afa158015612356573d6000803e3d6000fd5b505050506040513d601f19601f8201168201806040525081019061237a91906150a9565b90506000806123988660000154876003015487896001015487613bfa565b90985096505050505050505b935093915050565b60006107036103fa8361165f565b60c9546040516370a0823160e01b81526000916001600160a01b0316906370a08231906121909030906004016151b5565b600054610100900460ff161580801561240b5750600054600160ff909116105b806124255750303b158015612425575060005460ff166001145b6124415760405162461bcd60e51b81526004016107399061537e565b6000805460ff191660011790558015612464576000805461ff0019166101001790555b8015612498576000805461ff0019169055604051600181526000805160206158df8339815191529060200160405180910390a15b50565b600081815260976020526040812061070390613c54565b6000670de0b6b3a764000060d25483610e839190615752565b6000828152606560205260409020600101546124e6816127bb565b61098283836129cf565b6000816001600160a01b031663ee0708056040518163ffffffff1660e01b815260040160206040518083038186803b15801561252b57600080fd5b505afa15801561253f573d6000803e3d6000fd5b505050506040513d601f19601f820116820180604052508101906125639190614f69565b156125805760405162461bcd60e51b81526004016107399061546a565b61258a33836118fa565b50600192915050565b600061259e816127bb565b60d05460ff16806125b0575060da5442105b6126105760405162461bcd60e51b815260206004820152602b60248201527f6e6f742064697361626c65642c20616e64206e6f7420656e64206f662073746160448201526a35b4b7339032b4ba3432b960a91b6064820152608401610739565b60cc541561269f5760405162461bcd60e51b815260206004820152605060248201527f746865726520617265207374696c6c207374616b657320616363756d756c617460448201527f696e6720726577617264732e2043616c6c2060636c61696d526577617264734f60648201526f6e426568616c6660206f6e207468656d60801b608482015260a401610739565b60006126a96121e5565b9050600081116126f65760405162461bcd60e51b81526020600482015260186024820152776e6f7468696e67206c65667420746f20776974686472617760401b6044820152606401610739565b60ca5460405163a9059cbb60e01b81526001600160a01b039091169063a9059cbb9061272890339085906004016151ed565b602060405180830381600087803b15801561274257600080fd5b505af1158015612756573d6000803e3d6000fd5b505050506040513d601f19601f8201168201806040525081019061277a9190614f69565b508060d5600082825461278d9190615537565b90915550505050565b60006001600160e01b03198216635a05180f60e01b1480610703575061070382613c5e565b6124988133613c93565b60ca546001600160a01b0316151590565b60006127e183613cf7565b80156111d457506111d48383613d2a565b60006111d48383613e1b565b60d05460ff161561280b57565b60d45461281457565b60d65461282360dc5442613b41565b61282d919061557d565b60db5461283a9190615537565b60db554260dc55565b61284d8282613e40565b60008281526097602052604090206109829082613ec6565b60dd548390839060ff16156128d55761287d8461346b565b6128995760405162461bcd60e51b81526004016107399061534c565b600083116128b95760405162461bcd60e51b8152600401610739906153cc565b6128c5858560016129f1565b6128d0858585613edb565b6129c8565b60dd805460ff191660011790556001600160a01b03808316600090815260cb60209081526040808320938516835292905290812054612913906133f4565b905061291e8561346b565b61293a5760405162461bcd60e51b81526004016107399061534c565b6000841161295a5760405162461bcd60e51b8152600401610739906153cc565b612966868660016129f1565b612971868686613edb565b6001600160a01b03808416600090815260cb602090815260408083209386168352929052205481906129a2906133f4565b60d6546129af9190615537565b6129b991906157b0565b60d6555060dd805460ff191690555b5050505050565b6129d98282613f93565b60008281526097602052604090206109829082613ffa565b60dd548390839060ff1615612f16576001600160a01b03808616600090815260cb60209081526040808320938816835292905220612a2d6127fe565b6000856001600160a01b031663c4daa5936040518163ffffffff1660e01b815260040160206040518083038186803b158015612a6857600080fd5b505afa158015612a7c573d6000803e3d6000fd5b505050506040513d601f19601f82011682018060405250810190612aa09190614d2a565b6001600160a01b038716600090815260cf602052604081205491925090612ac95760db54612ae3565b6001600160a01b038716600090815260cf60205260409020545b9050600080612b7c856000015486600301548588600101548d6001600160a01b03166370a082318a6040518263ffffffff1660e01b8152600401612b2791906151b5565b60206040518083038186803b158015612b3f57600080fd5b505afa158015612b53573d6000803e3d6000fd5b505050506040513d601f19601f82011682018060405250810190612b7791906150a9565b613bfa565b9092509050612b8b8183615537565b60d86000828254612b9c9190615537565b9091555050600385018390554260028601556001600160a01b038916600090815260ce602052604081208054839290612bd6908490615537565b909155505060d05460ff168015612bf25750600485015460ff16155b15612c215760048501805460ff1916600190811790915560cc8054600090612c1b9084906157b0565b90915550505b81612c305750505050506129c8565b6000886001811115612c4457612c44615851565b1415612d185760ca5460405163a9059cbb60e01b81526001600160a01b039091169063a9059cbb90612c7c908d9086906004016151ed565b602060405180830381600087803b158015612c9657600080fd5b505af1158015612caa573d6000803e3d6000fd5b505050506040513d601f19601f82011682018060405250810190612cce9190614f69565b50886001600160a01b03168a6001600160a01b03166000805160206158bf8339815191528484604051612d0b929190918252602082015260400190565b60405180910390a3612f0c565b6001886001811115612d2c57612d2c615851565b1415612ec4576000612d3d8a6110a1565b90506000838211612d4e5781612d50565b835b90506000612d5e82866157b0565b9050612d6b8d8d84613edb565b8b6001600160a01b03168d6001600160a01b03167f661cda9d247039eabdcc72b8fed0de4ce46c907660a504c7e40889080fbd55908487604051612db9929190918252602082015260400190565b60405180910390a3600081118015612ddb575060ca546001600160a01b031615155b15612ebc5760ca60009054906101000a90046001600160a01b03166001600160a01b031663a9059cbb8e836040518363ffffffff1660e01b8152600401612e239291906151ed565b602060405180830381600087803b158015612e3d57600080fd5b505af1158015612e51573d6000803e3d6000fd5b505050506040513d601f19601f82011682018060405250810190612e759190614f69565b508b6001600160a01b03168d6001600160a01b03166000805160206158bf833981519152836000604051612eb3929190918252602082015260400190565b60405180910390a35b505050612f0c565b60405162461bcd60e51b815260206004820152601e60248201527f556e7265636f676e697a656420636865636b706f696e7420616374696f6e00006044820152606401610739565b50505050506129c8565b60dd805460ff191660011790556001600160a01b03808316600090815260cb60209081526040808320938516835292905290812054612f54906133f4565b6001600160a01b03808816600090815260cb60209081526040808320938a16835292905220909150612f846127fe565b6000866001600160a01b031663c4daa5936040518163ffffffff1660e01b815260040160206040518083038186803b158015612fbf57600080fd5b505afa158015612fd3573d6000803e3d6000fd5b505050506040513d601f19601f82011682018060405250810190612ff79190614d2a565b6001600160a01b038816600090815260cf6020526040812054919250906130205760db5461303a565b6001600160a01b038816600090815260cf60205260409020545b905060008061307e856000015486600301548588600101548e6001600160a01b03166370a082318a6040518263ffffffff1660e01b8152600401612b2791906151b5565b909250905061308d8183615537565b60d8600082825461309e9190615537565b9091555050600385018390554260028601556001600160a01b038a16600090815260ce6020526040812080548392906130d8908490615537565b909155505060d05460ff1680156130f45750600485015460ff16155b156131235760048501805460ff1916600190811790915560cc805460009061311d9084906157b0565b90915550505b81613132575050505050612971565b600089600181111561314657613146615851565b141561321a5760ca5460405163a9059cbb60e01b81526001600160a01b039091169063a9059cbb9061317e908e9086906004016151ed565b602060405180830381600087803b15801561319857600080fd5b505af11580156131ac573d6000803e3d6000fd5b505050506040513d601f19601f820116820180604052508101906131d09190614f69565b50896001600160a01b03168b6001600160a01b03166000805160206158bf833981519152848460405161320d929190918252602082015260400190565b60405180910390a36133c2565b600189600181111561322e5761322e615851565b1415612ec457600061323f8b6110a1565b905060008382116132505781613252565b835b9050600061326082866157b0565b905061326d8e8e84613edb565b8c6001600160a01b03168e6001600160a01b03167f661cda9d247039eabdcc72b8fed0de4ce46c907660a504c7e40889080fbd559084876040516132bb929190918252602082015260400190565b60405180910390a36000811180156132dd575060ca546001600160a01b031615155b156133be5760ca60009054906101000a90046001600160a01b03166001600160a01b031663a9059cbb8f836040518363ffffffff1660e01b81526004016133259291906151ed565b602060405180830381600087803b15801561333f57600080fd5b505af1158015613353573d6000803e3d6000fd5b505050506040513d601f19601f820116820180604052508101906133779190614f69565b508c6001600160a01b03168e6001600160a01b03166000805160206158bf8339815191528360006040516133b5929190918252602082015260400190565b60405180910390a35b5050505b50505050506001600160a01b03808416600090815260cb602090815260408083209386168352929052205481906129a2905b60008161340357506000919050565b6003821161341357506001919050565b60006002613422846001615537565b61342c919061557d565b90508291505b818110156134655790508060028161344a818661557d565b6134549190615537565b61345e919061557d565b9050613432565b50919050565b60d0546040516304cd5d2b60e11b815260009161010090046001600160a01b03169063099aba56906134a19085906004016151b5565b60206040518083038186803b1580156134b957600080fd5b505afa1580156134cd573d6000803e3d6000fd5b505050506040513d601f19601f820116820180604052508101906107039190614f69565b610c128282612843565b6000815160141461354e5760405162461bcd60e51b815260206004820152601f60248201527f696e76616c69642064617461206c656e67746820666f722061646472657373006044820152606401610739565b506014015190565b60dd546000908490849060ff16156137cb576135718561346b565b61358d5760405162461bcd60e51b81526004016107399061534c565b6001600160a01b03808716600090815260cb602090815260408083209389168352929052206001810154851480156135d0576135cb888860006129f1565b6135dc565b6135dc888860016129f1565b6001600160a01b03808916600090815260cb60209081526040808320938b1683529290522060028101549092506136255760405162461bcd60e51b8152600401610739906153fb565b858260010154101561363657600080fd5b600182015460009061364d6402540be40089615752565b613657919061557d565b905060006402540be4008285600001546136719190615752565b61367b919061557d565b60ca546040516370a0823160e01b815291925082916001600160a01b03909116906370a08231906136b09030906004016151b5565b60206040518083038186803b1580156136c857600080fd5b505afa1580156136dc573d6000803e3d6000fd5b505050506040513d601f19601f8201168201806040525081019061370091906150a9565b101561371e5760405162461bcd60e51b815260040161073990615429565b8784600101600082825461373291906157b0565b909155505083548190859060009061374b9084906157b0565b925050819055508060d4600082825461376491906157b0565b9091555050835415801561377d5750600484015460ff16155b156137ac5760048401805460ff1916600190811790915560cc80546000906137a69084906157b0565b90915550505b6137b6898961400f565b6137c08a82614073565b9550613abf92505050565b60dd805460ff191660011790556001600160a01b03808316600090815260cb60209081526040808320938516835292905290812054613809906133f4565b90506138148661346b565b6138305760405162461bcd60e51b81526004016107399061534c565b6001600160a01b03808816600090815260cb60209081526040808320938a168352929052206001810154861480156138735761386e898960006129f1565b61387f565b61387f898960016129f1565b6001600160a01b03808a16600090815260cb60209081526040808320938c1683529290522060028101549092506138c85760405162461bcd60e51b8152600401610739906153fb565b86826001015410156138d957600080fd5b60018201546000906138f06402540be4008a615752565b6138fa919061557d565b905060006402540be4008285600001546139149190615752565b61391e919061557d565b60ca546040516370a0823160e01b815291925082916001600160a01b03909116906370a08231906139539030906004016151b5565b60206040518083038186803b15801561396b57600080fd5b505afa15801561397f573d6000803e3d6000fd5b505050506040513d601f19601f820116820180604052508101906139a391906150a9565b10156139c15760405162461bcd60e51b815260040161073990615429565b888460010160008282546139d591906157b0565b90915550508354819085906000906139ee9084906157b0565b925050819055508060d46000828254613a0791906157b0565b90915550508354158015613a205750600484015460ff16155b15613a4f5760048401805460ff1916600190811790915560cc8054600090613a499084906157b0565b90915550505b613a598a8a61400f565b613a638b82614073565b96505050506001600160a01b03808416600090815260cb60209081526040808320938616835292905220548190613a99906133f4565b60d654613aa69190615537565b613ab091906157b0565b60d6555060dd805460ff191690555b50509392505050565b60006111d483836140f7565b600054610100900460ff16613b3f5760405162461bcd60e51b815260206004820152602b60248201527f496e697469616c697a61626c653a20636f6e7472616374206973206e6f74206960448201526a6e697469616c697a696e6760a81b6064820152608401610739565b565b6000806000613b508585614121565b91509150600080613b6184846144f4565b915091506000613b71838361473a565b9050306001600160a01b031663d19905386040518163ffffffff1660e01b815260040160206040518083038186803b158015613bac57600080fd5b505afa158015613bc0573d6000803e3d6000fd5b505050506040513d601f19601f82011682018060405250810190613be491906150a9565b613bee9082615752565b98975050505050505050565b600080806402540be400613c0e88886157b0565b613c178a6133f4565b613c219190615752565b613c2b919061557d565b90506000613c3a82878761479d565b9050613c4681836157b0565b999098509650505050505050565b6000610703825490565b60006001600160e01b03198216637965db0b60e01b148061070357506301ffc9a760e01b6001600160e01b0319831614610703565b613c9d8282611cc2565b610c1257613cb5816001600160a01b0316601461483b565b613cc083602061483b565b604051602001613cd1929190615146565b60408051601f198184030181529082905262461bcd60e51b82526107399160040161521b565b6000613d0a826301ffc9a760e01b613d2a565b80156107035750613d23826001600160e01b0319613d2a565b1592915050565b6000806301ffc9a760e01b83604051602401613d469190615206565b604051602081830303815290604052906001600160e01b0319166020820180516001600160e01b0383818316178352505050509050600080856001600160a01b031661753084604051613d99919061512a565b6000604051808303818686fa925050503d8060008114613dd5576040519150601f19603f3d011682016040523d82523d6000602084013e613dda565b606091505b5091509150602081511015613df55760009350505050610703565b818015613e11575080806020019051810190613e119190614f69565b9695505050505050565b6000815183511480156111d45750508051602091820120825192909101919091201490565b613e4a8282611cc2565b610c125760008281526065602090815260408083206001600160a01b03851684529091529020805460ff19166001179055613e823390565b6001600160a01b0316816001600160a01b0316837f2f8788117e7eff1d82e926ec794901d17c78024a50270940304540a733656f0d60405160405180910390a45050565b60006111d4836001600160a01b0384166149d7565b6000613ee682610e6b565b6001600160a01b03808616600090815260cb60209081526040808320938816835292905220805491925090613f3a57600160cc6000828254613f289190615537565b909155505060048101805460ff191690555b82816000016000828254613f4e9190615537565b9250508190555081816001016000828254613f699190615537565b925050819055508260d46000828254613f829190615537565b909155506129c89050858584614a26565b613f9d8282611cc2565b15610c125760008281526065602090815260408083206001600160a01b0385168085529252808320805460ff1916905551339285917ff6391f5c32d9c69d2a47ea670b442974b53935d1edc7fd64eb21e047a839171b9190a45050565b60006111d4836001600160a01b038416614b42565b604051632770a7eb60e21b81526001600160a01b03831690639dc29fac9061403d90309085906004016151ed565b600060405180830381600087803b15801561405757600080fd5b505af115801561406b573d6000803e3d6000fd5b505050505050565b60ca5460405163a9059cbb60e01b81526001600160a01b039091169063a9059cbb906140a590859085906004016151ed565b602060405180830381600087803b1580156140bf57600080fd5b505af11580156140d3573d6000803e3d6000fd5b505050506040513d601f19601f820116820180604052508101906109829190614f69565b600082600001828154811061410e5761410e61587d565b9060005260206000200154905092915050565b600080306001600160a01b031663be9a65556040518163ffffffff1660e01b815260040160206040518083038186803b15801561415d57600080fd5b505afa158015614171573d6000803e3d6000fd5b505050506040513d601f19601f8201168201806040525081019061419591906150a9565b831115806142135750306001600160a01b031663efbe1c1c6040518163ffffffff1660e01b815260040160206040518083038186803b1580156141d757600080fd5b505afa1580156141eb573d6000803e3d6000fd5b505050506040513d601f19601f8201168201806040525081019061420f91906150a9565b8410155b1561430357306001600160a01b031663be9a65556040518163ffffffff1660e01b815260040160206040518083038186803b15801561425157600080fd5b505afa158015614265573d6000803e3d6000fd5b505050506040513d601f19601f8201168201806040525081019061428991906150a9565b306001600160a01b031663be9a65556040518163ffffffff1660e01b815260040160206040518083038186803b1580156142c257600080fd5b505afa1580156142d6573d6000803e3d6000fd5b505050506040513d601f19601f820116820180604052508101906142fa91906150a9565b915091506144ed565b6000306001600160a01b031663be9a65556040518163ffffffff1660e01b815260040160206040518083038186803b15801561433e57600080fd5b505afa158015614352573d6000803e3d6000fd5b505050506040513d601f19601f8201168201806040525081019061437691906150a9565b851061438257846143f3565b306001600160a01b031663be9a65556040518163ffffffff1660e01b815260040160206040518083038186803b1580156143bb57600080fd5b505afa1580156143cf573d6000803e3d6000fd5b505050506040513d601f19601f820116820180604052508101906143f391906150a9565b90506000306001600160a01b031663efbe1c1c6040518163ffffffff1660e01b815260040160206040518083038186803b15801561443057600080fd5b505afa158015614444573d6000803e3d6000fd5b505050506040513d601f19601f8201168201806040525081019061446891906150a9565b851161447457846144e5565b306001600160a01b031663efbe1c1c6040518163ffffffff1660e01b815260040160206040518083038186803b1580156144ad57600080fd5b505afa1580156144c1573d6000803e3d6000fd5b505050506040513d601f19601f820116820180604052508101906144e591906150a9565b919350909150505b9250929050565b6000806000306001600160a01b031663be9a65556040518163ffffffff1660e01b815260040160206040518083038186803b15801561453257600080fd5b505afa158015614546573d6000803e3d6000fd5b505050506040513d601f19601f8201168201806040525081019061456a91906150a9565b306001600160a01b031663efbe1c1c6040518163ffffffff1660e01b815260040160206040518083038186803b1580156145a357600080fd5b505afa1580156145b7573d6000803e3d6000fd5b505050506040513d601f19601f820116820180604052508101906145db91906150a9565b6145e591906157b0565b9050806145fa576000600192509250506144ed565b6000816402540be400306001600160a01b031663be9a65556040518163ffffffff1660e01b815260040160206040518083038186803b15801561463c57600080fd5b505afa158015614650573d6000803e3d6000fd5b505050506040513d601f19601f8201168201806040525081019061467491906150a9565b61467e90896157b0565b6146889190615752565b614692919061557d565b90506000826402540be400306001600160a01b031663be9a65556040518163ffffffff1660e01b815260040160206040518083038186803b1580156146d657600080fd5b505afa1580156146ea573d6000803e3d6000fd5b505050506040513d601f19601f8201168201806040525081019061470e91906150a9565b61471890896157b0565b6147229190615752565b61472c919061557d565b919791965090945050505050565b6000806147476000614c35565b6147556402540be400614c35565b61475f9190615771565b9050600061476c85614c35565b61477585614c35565b61477f9190615771565b90506000826147936402540be400846156cd565b613e11919061554f565b6000806147b76147b26402540be40086615752565b6133f4565b905060006147cd6147b26402540be40086615752565b905060006147db8284615537565b6147ea6402540be40084615752565b6147f4919061557d565b905060006402540be400614808838a615752565b614812919061557d565b9050600061482160648a61557d565b90508082101561482f578091505b50979650505050505050565b6060600061484a836002615752565b614855906002615537565b67ffffffffffffffff81111561486d5761486d615893565b6040519080825280601f01601f191660200182016040528015614897576020820181803683370190505b509050600360fc1b816000815181106148b2576148b261587d565b60200101906001600160f81b031916908160001a905350600f60fb1b816001815181106148e1576148e161587d565b60200101906001600160f81b031916908160001a9053506000614905846002615752565b614910906001615537565b90505b6001811115614988576f181899199a1a9b1b9c1cb0b131b232b360811b85600f16601081106149445761494461587d565b1a60f81b82828151811061495a5761495a61587d565b60200101906001600160f81b031916908160001a90535060049490941c93614981816157f3565b9050614913565b5083156111d45760405162461bcd60e51b815260206004820181905260248201527f537472696e67733a20686578206c656e67746820696e73756666696369656e746044820152606401610739565b6000818152600183016020526040812054614a1e57508154600181810184556000848152602080822090930184905584548482528286019093526040902091909155610703565b506000610703565b6040516340c10f1960e01b81526001600160a01b038316906340c10f1990614a5490869085906004016151ed565b600060405180830381600087803b158015614a6e57600080fd5b505af1158015614a82573d6000803e3d6000fd5b505050506001600160a01b038216600090815260cf6020526040902054158015614b1c57506000826001600160a01b0316633e0075a16040518163ffffffff1660e01b815260040160206040518083038186803b158015614ae257600080fd5b505afa158015614af6573d6000803e3d6000fd5b505050506040513d601f19601f82011682018060405250810190614b1a91906150a9565b115b156109825760db546001600160a01b038316600090815260cf6020526040902055505050565b60008181526001830160205260408120548015614c2b576000614b666001836157b0565b8554909150600090614b7a906001906157b0565b9050818114614bdf576000866000018281548110614b9a57614b9a61587d565b9060005260206000200154905080876000018481548110614bbd57614bbd61587d565b6000918252602080832090910192909255918252600188019052604090208390555b8554869080614bf057614bf0615867565b600190038181906000526020600020016000905590558560010160008681526020019081526020016000206000905560019350505050610703565b6000915050610703565b6000816402540be40081614c4a6002836156be565b614c5491906156cd565b614c5f6002846156be565b614c6990836156cd565b6003614c7581866156be565b614c7f919061554f565b614c899190615771565b614c9391906154f6565b949350505050565b600082601f830112614cac57600080fd5b81356020614cc1614cbc836154d2565b6154a1565b80838252828201915082860187848660051b8901011115614ce157600080fd5b60005b85811015614d0057813584529284019290840190600101614ce4565b5090979650505050505050565b600060208284031215614d1f57600080fd5b81356111d4816158a9565b600060208284031215614d3c57600080fd5b81516111d4816158a9565b60008060408385031215614d5a57600080fd5b8235614d65816158a9565b91506020830135614d75816158a9565b809150509250929050565b600080600060608486031215614d9557600080fd5b8335614da0816158a9565b92506020840135614db0816158a9565b929592945050506040919091013590565b600080600080600060808688031215614dd957600080fd5b8535614de4816158a9565b94506020860135614df4816158a9565b935060408601359250606086013567ffffffffffffffff80821115614e1857600080fd5b818801915088601f830112614e2c57600080fd5b813581811115614e3b57600080fd5b896020828501011115614e4d57600080fd5b9699959850939650602001949392505050565b600080600060608486031215614e7557600080fd5b8335614e80816158a9565b925060208481013567ffffffffffffffff80821115614e9e57600080fd5b818701915087601f830112614eb257600080fd5b8135614ec0614cbc826154d2565b8082825285820191508585018b878560051b8801011115614ee057600080fd5b600095505b83861015614f0c578035614ef8816158a9565b835260019590950194918601918601614ee5565b50965050506040870135925080831115614f2557600080fd5b5050614f3386828701614c9b565b9150509250925092565b60008060408385031215614f5057600080fd5b8235614f5b816158a9565b946020939093013593505050565b600060208284031215614f7b57600080fd5b815180151581146111d457600080fd5b600060208284031215614f9d57600080fd5b5035919050565b60008060408385031215614fb757600080fd5b823591506020830135614d75816158a9565b60008060408385031215614fdc57600080fd5b50508035926020909101359150565b600060208284031215614ffd57600080fd5b81356001600160e01b0319811681146111d457600080fd5b60006020828403121561502757600080fd5b815167ffffffffffffffff8082111561503f57600080fd5b818401915084601f83011261505357600080fd5b81518181111561506557615065615893565b615078601f8201601f19166020016154a1565b915080825285602082850101111561508f57600080fd5b6150a08160208401602086016157c7565b50949350505050565b6000602082840312156150bb57600080fd5b5051919050565b600080600080600080600060e0888a0312156150dd57600080fd5b87359650602088013595506040880135945060608801356150fd816158a9565b9350608088013561510d816158a9565b9699959850939692959460a0840135945060c09093013592915050565b6000825161513c8184602087016157c7565b9190910192915050565b76020b1b1b2b9b9a1b7b73a3937b61d1030b1b1b7bab73a1604d1b8152600083516151788160178501602088016157c7565b7001034b99036b4b9b9b4b733903937b6329607d1b60179184019182015283516151a98160288401602088016157c7565b01602801949350505050565b6001600160a01b0391909116815260200190565b6001600160a01b039384168152919092166020820152604081019190915260600190565b6001600160a01b03929092168252602082015260400190565b6001600160e01b031991909116815260200190565b602081526000825180602084015261523a8160408501602087016157c7565b601f01601f19169190910160400192915050565b6020808252601f908201527f7374616b696e6720706572696f6420616c72656164792066696e697368656400604082015260600190565b6020808252601e908201527f7374616b696e6720706572696f64206e6f742079657420737461727465640000604082015260600190565b602080825260159082015274151053081d1bdad95b881b9bdd081e595d081cd95d605a1b604082015260600190565b6020808252601990820152781cdd185ada5b99c81a185cc81899595b88191a5cd8589b1959603a1b604082015260600190565b60208082526014908201527314dd18589b194818dbda5b88191a5cd8589b195960621b604082015260600190565b6020808252601890820152773737ba1030903b30b634b2103a30b632b73a103a37b5b2b760411b604082015260600190565b6020808252602e908201527f496e697469616c697a61626c653a20636f6e747261637420697320616c72656160408201526d191e481a5b9a5d1a585b1a5e995960921b606082015260800190565b602080825260159082015274616d6f756e742063616e6e6f74206265207a65726f60581b604082015260600190565b6020808252601490820152731cdd185ad948191bd95cc81b9bdd08195e1a5cdd60621b604082015260600190565b60208082526021908201527f6e6f7420656e6f7567682054414c20746f2066756c66696c6c207265717565736040820152601d60fa1b606082015260800190565b6020808252601e908201527f54616c656e7420746f6b656e20686173206265656e2064697361626c65640000604082015260600190565b604051601f8201601f1916810167ffffffffffffffff811182821017156154ca576154ca615893565b604052919050565b600067ffffffffffffffff8211156154ec576154ec615893565b5060051b60200190565b600080821280156001600160ff1b038490038513161561551857615518615825565b600160ff1b839003841281161561553157615531615825565b50500190565b6000821982111561554a5761554a615825565b500190565b60008261555e5761555e61583b565b600160ff1b82146000198414161561557857615578615825565b500590565b60008261558c5761558c61583b565b500490565b80825b60018086116155a357506123a4565b6001600160ff1b038290048211156155bd576155bd615825565b808616156155ca57918102915b9490941c938002615594565b60008280156155ec57600181146155f6576155ff565b6001915050610703565b82915050610703565b508161560d57506000610703565b506001600082138082146156265780156156455761565f565b6001600160ff1b0383900483111561564057615640615825565b61565f565b6001600160ff1b0383900583121561565f5761565f615825565b508083161561566b5750805b61567b8360011c83840283615591565b600082136001600160ff1b038290048311161561569a5761569a615825565b60008212600160ff1b829005831216156156b6576156b6615825565b029392505050565b60006111d460ff8416836155d6565b60006001600160ff1b03818413828413808216868404861116156156f3576156f3615825565b600160ff1b600087128281168783058912161561571257615712615825565b6000871292508782058712848416161561572e5761572e615825565b8785058712818416161561574457615744615825565b505050929093029392505050565b600081600019048311821515161561576c5761576c615825565b500290565b60008083128015600160ff1b85018412161561578f5761578f615825565b6001600160ff1b03840183138116156157aa576157aa615825565b50500390565b6000828210156157c2576157c2615825565b500390565b60005b838110156157e25781810151838201526020016157ca565b83811115610b925750506000910152565b60008161580257615802615825565b506000190190565b600060001982141561581e5761581e615825565b5060010190565b634e487b7160e01b600052601160045260246000fd5b634e487b7160e01b600052601260045260246000fd5b634e487b7160e01b600052602160045260246000fd5b634e487b7160e01b600052603160045260246000fd5b634e487b7160e01b600052603260045260246000fd5b634e487b7160e01b600052604160045260246000fd5b6001600160a01b038116811461249857600080fdfe013ceff621e16e2f96e454db0b811d5e35d3be38beab8a6bf4be6a3dc8cd23f37f26b83ff96e1f2b6a682f133852f6798a09c465da95921460cefb3847402498929ad80cfbf532d1e879107de0553ee80942d13c8043f2b2615f9b15b87d10daa26469706673582212206c36128115a22813ef9e9bca39022f8be617b809961a9371167fde808dd0da8564736f6c63430008070033",
  "linkReferences": {},
  "deployedLinkReferences": {}
}