{
  "_format": "hh-sol-artifact-1",
  "contractName": "Staking",
  "sourceName": "contracts/Staking.sol",
  "abi": [
    {
      "anonymous": false,
      "inputs": [
        {
          "indexed": false,
          "internalType": "uint8",
          "name": "version",
          "type": "uint8"
        }
      ],
      "name": "Initialized",
      "type": "event"
    },
    {
      "anonymous": false,
      "inputs": [
        {
          "indexed": true,
          "internalType": "address",
          "name": "owner",
          "type": "address"
        },
        {
          "indexed": true,
          "internalType": "address",
          "name": "talentToken",
          "type": "address"
        },
        {
          "indexed": false,
          "internalType": "uint256",
          "name": "stakerReward",
          "type": "uint256"
        },
        {
          "indexed": false,
          "internalType": "uint256",
          "name": "talentReward",
          "type": "uint256"
        }
      ],
      "name": "RewardClaim",
      "type": "event"
    },
    {
      "anonymous": false,
      "inputs": [
        {
          "indexed": true,
          "internalType": "address",
          "name": "owner",
          "type": "address"
        },
        {
          "indexed": true,
          "internalType": "address",
          "name": "talentToken",
          "type": "address"
        },
        {
          "indexed": false,
          "internalType": "uint256",
          "name": "stakerReward",
          "type": "uint256"
        },
        {
          "indexed": false,
          "internalType": "uint256",
          "name": "talentReward",
          "type": "uint256"
        }
      ],
      "name": "RewardWithdrawal",
      "type": "event"
    },
    {
      "anonymous": false,
      "inputs": [
        {
          "indexed": true,
          "internalType": "bytes32",
          "name": "role",
          "type": "bytes32"
        },
        {
          "indexed": true,
          "internalType": "bytes32",
          "name": "previousAdminRole",
          "type": "bytes32"
        },
        {
          "indexed": true,
          "internalType": "bytes32",
          "name": "newAdminRole",
          "type": "bytes32"
        }
      ],
      "name": "RoleAdminChanged",
      "type": "event"
    },
    {
      "anonymous": false,
      "inputs": [
        {
          "indexed": true,
          "internalType": "bytes32",
          "name": "role",
          "type": "bytes32"
        },
        {
          "indexed": true,
          "internalType": "address",
          "name": "account",
          "type": "address"
        },
        {
          "indexed": true,
          "internalType": "address",
          "name": "sender",
          "type": "address"
        }
      ],
      "name": "RoleGranted",
      "type": "event"
    },
    {
      "anonymous": false,
      "inputs": [
        {
          "indexed": true,
          "internalType": "bytes32",
          "name": "role",
          "type": "bytes32"
        },
        {
          "indexed": true,
          "internalType": "address",
          "name": "account",
          "type": "address"
        },
        {
          "indexed": true,
          "internalType": "address",
          "name": "sender",
          "type": "address"
        }
      ],
      "name": "RoleRevoked",
      "type": "event"
    },
    {
      "anonymous": false,
      "inputs": [
        {
          "indexed": true,
          "internalType": "address",
          "name": "owner",
          "type": "address"
        },
        {
          "indexed": true,
          "internalType": "address",
          "name": "talentToken",
          "type": "address"
        },
        {
          "indexed": false,
          "internalType": "uint256",
          "name": "talAmount",
          "type": "uint256"
        },
        {
          "indexed": false,
          "internalType": "bool",
          "name": "stable",
          "type": "bool"
        }
      ],
      "name": "Stake",
      "type": "event"
    },
    {
      "anonymous": false,
      "inputs": [
        {
          "indexed": true,
          "internalType": "address",
          "name": "talent",
          "type": "address"
        },
        {
          "indexed": false,
          "internalType": "uint256",
          "name": "newChainId",
          "type": "uint256"
        }
      ],
      "name": "TalentDisabledForNetworkTransfer",
      "type": "event"
    },
    {
      "anonymous": false,
      "inputs": [
        {
          "indexed": true,
          "internalType": "address",
          "name": "talentToken",
          "type": "address"
        },
        {
          "indexed": true,
          "internalType": "address",
          "name": "talentTokenWallet",
          "type": "address"
        },
        {
          "indexed": false,
          "internalType": "uint256",
          "name": "reward",
          "type": "uint256"
        }
      ],
      "name": "TalentRewardWithdrawal",
      "type": "event"
    },
    {
      "anonymous": false,
      "inputs": [
        {
          "indexed": true,
          "internalType": "address",
          "name": "owner",
          "type": "address"
        },
        {
          "indexed": true,
          "internalType": "address",
          "name": "talentToken",
          "type": "address"
        },
        {
          "indexed": false,
          "internalType": "uint256",
          "name": "talAmount",
          "type": "uint256"
        }
      ],
      "name": "Unstake",
      "type": "event"
    },
    {
      "inputs": [],
      "name": "DEFAULT_ADMIN_ROLE",
      "outputs": [
        {
          "internalType": "bytes32",
          "name": "",
          "type": "bytes32"
        }
      ],
      "stateMutability": "view",
      "type": "function"
    },
    {
      "inputs": [],
      "name": "S",
      "outputs": [
        {
          "internalType": "uint256",
          "name": "",
          "type": "uint256"
        }
      ],
      "stateMutability": "view",
      "type": "function"
    },
    {
      "inputs": [],
      "name": "SAt",
      "outputs": [
        {
          "internalType": "uint256",
          "name": "",
          "type": "uint256"
        }
      ],
      "stateMutability": "view",
      "type": "function"
    },
    {
      "inputs": [],
      "name": "__RewardCalculator_init",
      "outputs": [],
      "stateMutability": "nonpayable",
      "type": "function"
    },
    {
      "inputs": [
        {
          "internalType": "address",
          "name": "_stableCoin",
          "type": "address"
        }
      ],
      "name": "__StableThenToken_init",
      "outputs": [],
      "stateMutability": "nonpayable",
      "type": "function"
    },
    {
      "inputs": [],
      "name": "activeStakes",
      "outputs": [
        {
          "internalType": "uint256",
          "name": "",
          "type": "uint256"
        }
      ],
      "stateMutability": "view",
      "type": "function"
    },
    {
      "inputs": [],
      "name": "adminWithdraw",
      "outputs": [],
      "stateMutability": "nonpayable",
      "type": "function"
    },
    {
      "inputs": [
        {
          "internalType": "address",
          "name": "_owner",
          "type": "address"
        },
        {
          "internalType": "address",
          "name": "_talent",
          "type": "address"
        },
        {
          "internalType": "uint256",
          "name": "_currentTime",
          "type": "uint256"
        }
      ],
      "name": "calculateEstimatedReturns",
      "outputs": [
        {
          "internalType": "uint256",
          "name": "stakerRewards",
          "type": "uint256"
        },
        {
          "internalType": "uint256",
          "name": "talentRewards",
          "type": "uint256"
        }
      ],
      "stateMutability": "view",
      "type": "function"
    },
    {
      "inputs": [
        {
          "internalType": "address",
          "name": "_talent",
          "type": "address"
        }
      ],
      "name": "claimRewards",
      "outputs": [
        {
          "internalType": "bool",
          "name": "",
          "type": "bool"
        }
      ],
      "stateMutability": "nonpayable",
      "type": "function"
    },
    {
      "inputs": [
        {
          "internalType": "address",
          "name": "_owner",
          "type": "address"
        },
        {
          "internalType": "address",
          "name": "_talent",
          "type": "address"
        }
      ],
      "name": "claimRewardsOnBehalf",
      "outputs": [
        {
          "internalType": "bool",
          "name": "",
          "type": "bool"
        }
      ],
      "stateMutability": "nonpayable",
      "type": "function"
    },
    {
      "inputs": [
        {
          "internalType": "uint256",
          "name": "_talent",
          "type": "uint256"
        }
      ],
      "name": "convertTalentToToken",
      "outputs": [
        {
          "internalType": "uint256",
          "name": "",
          "type": "uint256"
        }
      ],
      "stateMutability": "view",
      "type": "function"
    },
    {
      "inputs": [
        {
          "internalType": "uint256",
          "name": "_tal",
          "type": "uint256"
        }
      ],
      "name": "convertTokenToTalent",
      "outputs": [
        {
          "internalType": "uint256",
          "name": "",
          "type": "uint256"
        }
      ],
      "stateMutability": "view",
      "type": "function"
    },
    {
      "inputs": [
        {
          "internalType": "uint256",
          "name": "_usd",
          "type": "uint256"
        }
      ],
      "name": "convertUsdToTalent",
      "outputs": [
        {
          "internalType": "uint256",
          "name": "",
          "type": "uint256"
        }
      ],
      "stateMutability": "view",
      "type": "function"
    },
    {
      "inputs": [
        {
          "internalType": "uint256",
          "name": "_usd",
          "type": "uint256"
        }
      ],
      "name": "convertUsdToToken",
      "outputs": [
        {
          "internalType": "uint256",
          "name": "",
          "type": "uint256"
        }
      ],
      "stateMutability": "view",
      "type": "function"
    },
    {
      "inputs": [],
      "name": "disable",
      "outputs": [],
      "stateMutability": "nonpayable",
      "type": "function"
    },
    {
      "inputs": [],
      "name": "disabled",
      "outputs": [
        {
          "internalType": "bool",
          "name": "",
          "type": "bool"
        }
      ],
      "stateMutability": "view",
      "type": "function"
    },
    {
      "inputs": [],
      "name": "end",
      "outputs": [
        {
          "internalType": "uint256",
          "name": "",
          "type": "uint256"
        }
      ],
      "stateMutability": "view",
      "type": "function"
    },
    {
      "inputs": [],
      "name": "factory",
      "outputs": [
        {
          "internalType": "address",
          "name": "",
          "type": "address"
        }
      ],
      "stateMutability": "view",
      "type": "function"
    },
    {
      "inputs": [
        {
          "internalType": "bytes32",
          "name": "role",
          "type": "bytes32"
        }
      ],
      "name": "getRoleAdmin",
      "outputs": [
        {
          "internalType": "bytes32",
          "name": "",
          "type": "bytes32"
        }
      ],
      "stateMutability": "view",
      "type": "function"
    },
    {
      "inputs": [
        {
          "internalType": "bytes32",
          "name": "role",
          "type": "bytes32"
        },
        {
          "internalType": "uint256",
          "name": "index",
          "type": "uint256"
        }
      ],
      "name": "getRoleMember",
      "outputs": [
        {
          "internalType": "address",
          "name": "",
          "type": "address"
        }
      ],
      "stateMutability": "view",
      "type": "function"
    },
    {
      "inputs": [
        {
          "internalType": "bytes32",
          "name": "role",
          "type": "bytes32"
        }
      ],
      "name": "getRoleMemberCount",
      "outputs": [
        {
          "internalType": "uint256",
          "name": "",
          "type": "uint256"
        }
      ],
      "stateMutability": "view",
      "type": "function"
    },
    {
      "inputs": [
        {
          "internalType": "bytes32",
          "name": "role",
          "type": "bytes32"
        },
        {
          "internalType": "address",
          "name": "account",
          "type": "address"
        }
      ],
      "name": "grantRole",
      "outputs": [],
      "stateMutability": "nonpayable",
      "type": "function"
    },
    {
      "inputs": [
        {
          "internalType": "bytes32",
          "name": "role",
          "type": "bytes32"
        },
        {
          "internalType": "address",
          "name": "account",
          "type": "address"
        }
      ],
      "name": "hasRole",
      "outputs": [
        {
          "internalType": "bool",
          "name": "",
          "type": "bool"
        }
      ],
      "stateMutability": "view",
      "type": "function"
    },
    {
      "inputs": [
        {
          "internalType": "uint256",
          "name": "_start",
          "type": "uint256"
        },
        {
          "internalType": "uint256",
          "name": "_end",
          "type": "uint256"
        },
        {
          "internalType": "uint256",
          "name": "_rewardsMax",
          "type": "uint256"
        },
        {
          "internalType": "address",
          "name": "_stableCoin",
          "type": "address"
        },
        {
          "internalType": "address",
          "name": "_factory",
          "type": "address"
        },
        {
          "internalType": "uint256",
          "name": "_tokenPrice",
          "type": "uint256"
        },
        {
          "internalType": "uint256",
          "name": "_talentPrice",
          "type": "uint256"
        }
      ],
      "name": "initialize",
      "outputs": [],
      "stateMutability": "nonpayable",
      "type": "function"
    },
    {
      "inputs": [
        {
          "internalType": "address",
          "name": "",
          "type": "address"
        }
      ],
      "name": "maxSForTalent",
      "outputs": [
        {
          "internalType": "uint256",
          "name": "",
          "type": "uint256"
        }
      ],
      "stateMutability": "view",
      "type": "function"
    },
    {
      "inputs": [
        {
          "internalType": "address",
          "name": "_talent",
          "type": "address"
        },
        {
          "internalType": "address[]",
          "name": "_stakeholders",
          "type": "address[]"
        },
        {
          "internalType": "uint256[]",
          "name": "_stakeAmounts",
          "type": "uint256[]"
        }
      ],
      "name": "migrateStakes",
      "outputs": [],
      "stateMutability": "nonpayable",
      "type": "function"
    },
    {
      "inputs": [
        {
          "internalType": "address",
          "name": "",
          "type": "address"
        },
        {
          "internalType": "address",
          "name": "_sender",
          "type": "address"
        },
        {
          "internalType": "uint256",
          "name": "_amount",
          "type": "uint256"
        },
        {
          "internalType": "bytes",
          "name": "data",
          "type": "bytes"
        }
      ],
      "name": "onTransferReceived",
      "outputs": [
        {
          "internalType": "bytes4",
          "name": "",
          "type": "bytes4"
        }
      ],
      "stateMutability": "nonpayable",
      "type": "function"
    },
    {
      "inputs": [
        {
          "internalType": "bytes32",
          "name": "role",
          "type": "bytes32"
        },
        {
          "internalType": "address",
          "name": "account",
          "type": "address"
        }
      ],
      "name": "renounceRole",
      "outputs": [],
      "stateMutability": "nonpayable",
      "type": "function"
    },
    {
      "inputs": [
        {
          "internalType": "bytes32",
          "name": "role",
          "type": "bytes32"
        },
        {
          "internalType": "address",
          "name": "account",
          "type": "address"
        }
      ],
      "name": "revokeRole",
      "outputs": [],
      "stateMutability": "nonpayable",
      "type": "function"
    },
    {
      "inputs": [],
      "name": "rewardsGiven",
      "outputs": [
        {
          "internalType": "uint256",
          "name": "",
          "type": "uint256"
        }
      ],
      "stateMutability": "view",
      "type": "function"
    },
    {
      "inputs": [],
      "name": "rewardsLeft",
      "outputs": [
        {
          "internalType": "uint256",
          "name": "",
          "type": "uint256"
        }
      ],
      "stateMutability": "view",
      "type": "function"
    },
    {
      "inputs": [],
      "name": "rewardsMax",
      "outputs": [
        {
          "internalType": "uint256",
          "name": "",
          "type": "uint256"
        }
      ],
      "stateMutability": "view",
      "type": "function"
    },
    {
      "inputs": [
        {
          "internalType": "address",
          "name": "_token",
          "type": "address"
        }
      ],
      "name": "setToken",
      "outputs": [],
      "stateMutability": "nonpayable",
      "type": "function"
    },
    {
      "inputs": [
        {
          "internalType": "uint256",
          "name": "_price",
          "type": "uint256"
        }
      ],
      "name": "setTokenPrice",
      "outputs": [],
      "stateMutability": "nonpayable",
      "type": "function"
    },
    {
      "inputs": [],
      "name": "stableCoin",
      "outputs": [
        {
          "internalType": "address",
          "name": "",
          "type": "address"
        }
      ],
      "stateMutability": "view",
      "type": "function"
    },
    {
      "inputs": [],
      "name": "stableCoinBalance",
      "outputs": [
        {
          "internalType": "uint256",
          "name": "",
          "type": "uint256"
        }
      ],
      "stateMutability": "view",
      "type": "function"
    },
    {
      "inputs": [
        {
          "internalType": "address",
          "name": "_talent",
          "type": "address"
        }
      ],
      "name": "stakeAvailability",
      "outputs": [
        {
          "internalType": "uint256",
          "name": "",
          "type": "uint256"
        }
      ],
      "stateMutability": "view",
      "type": "function"
    },
    {
      "inputs": [
        {
          "internalType": "address",
          "name": "_talent",
          "type": "address"
        },
        {
          "internalType": "uint256",
          "name": "_amount",
          "type": "uint256"
        }
      ],
      "name": "stakeStable",
      "outputs": [
        {
          "internalType": "bool",
          "name": "",
          "type": "bool"
        }
      ],
      "stateMutability": "nonpayable",
      "type": "function"
    },
    {
      "inputs": [
        {
          "internalType": "address",
          "name": "",
          "type": "address"
        },
        {
          "internalType": "address",
          "name": "",
          "type": "address"
        }
      ],
      "name": "stakes",
      "outputs": [
        {
          "internalType": "uint256",
          "name": "tokenAmount",
          "type": "uint256"
        },
        {
          "internalType": "uint256",
          "name": "talentAmount",
          "type": "uint256"
        },
        {
          "internalType": "uint256",
          "name": "lastCheckpointAt",
          "type": "uint256"
        },
        {
          "internalType": "uint256",
          "name": "S",
          "type": "uint256"
        },
        {
          "internalType": "bool",
          "name": "finishedAccumulating",
          "type": "bool"
        }
      ],
      "stateMutability": "view",
      "type": "function"
    },
    {
      "inputs": [],
      "name": "start",
      "outputs": [
        {
          "internalType": "uint256",
          "name": "",
          "type": "uint256"
        }
      ],
      "stateMutability": "view",
      "type": "function"
    },
    {
      "inputs": [
        {
          "internalType": "bytes4",
          "name": "interfaceId",
          "type": "bytes4"
        }
      ],
      "name": "supportsInterface",
      "outputs": [
        {
          "internalType": "bool",
          "name": "",
          "type": "bool"
        }
      ],
      "stateMutability": "view",
      "type": "function"
    },
    {
      "inputs": [
        {
          "internalType": "uint256",
          "name": "_stableAmount",
          "type": "uint256"
        }
      ],
      "name": "swapStableForToken",
      "outputs": [],
      "stateMutability": "nonpayable",
      "type": "function"
    },
    {
      "inputs": [],
      "name": "talentPrice",
      "outputs": [
        {
          "internalType": "uint256",
          "name": "",
          "type": "uint256"
        }
      ],
      "stateMutability": "view",
      "type": "function"
    },
    {
      "inputs": [
        {
          "internalType": "address",
          "name": "",
          "type": "address"
        }
      ],
      "name": "talentRedeemableRewards",
      "outputs": [
        {
          "internalType": "uint256",
          "name": "",
          "type": "uint256"
        }
      ],
      "stateMutability": "view",
      "type": "function"
    },
    {
      "inputs": [],
      "name": "token",
      "outputs": [
        {
          "internalType": "address",
          "name": "",
          "type": "address"
        }
      ],
      "stateMutability": "view",
      "type": "function"
    },
    {
      "inputs": [],
      "name": "tokenBalance",
      "outputs": [
        {
          "internalType": "uint256",
          "name": "",
          "type": "uint256"
        }
      ],
      "stateMutability": "view",
      "type": "function"
    },
    {
      "inputs": [],
      "name": "tokenPrice",
      "outputs": [
        {
          "internalType": "uint256",
          "name": "",
          "type": "uint256"
        }
      ],
      "stateMutability": "view",
      "type": "function"
    },
    {
      "inputs": [],
      "name": "totalAdjustedShares",
      "outputs": [
        {
          "internalType": "uint256",
          "name": "",
          "type": "uint256"
        }
      ],
      "stateMutability": "view",
      "type": "function"
    },
    {
      "inputs": [],
      "name": "totalShares",
      "outputs": [
        {
          "internalType": "uint256",
          "name": "",
          "type": "uint256"
        }
      ],
      "stateMutability": "view",
      "type": "function"
    },
    {
      "inputs": [],
      "name": "totalStableStored",
      "outputs": [
        {
          "internalType": "uint256",
          "name": "",
          "type": "uint256"
        }
      ],
      "stateMutability": "view",
      "type": "function"
    },
    {
      "inputs": [],
      "name": "totalTokensStaked",
      "outputs": [
        {
          "internalType": "uint256",
          "name": "",
          "type": "uint256"
        }
      ],
      "stateMutability": "view",
      "type": "function"
    },
    {
      "inputs": [
        {
          "internalType": "address",
          "name": "_talent",
          "type": "address"
        },
        {
          "internalType": "uint256",
          "name": "_newChainId",
          "type": "uint256"
        }
      ],
      "name": "transferToNetwork",
      "outputs": [],
      "stateMutability": "nonpayable",
      "type": "function"
    },
    {
      "inputs": [
        {
          "internalType": "address",
          "name": "_talent",
          "type": "address"
        }
      ],
      "name": "withdrawRewards",
      "outputs": [
        {
          "internalType": "bool",
          "name": "",
          "type": "bool"
        }
      ],
      "stateMutability": "nonpayable",
      "type": "function"
    },
    {
      "inputs": [
        {
          "internalType": "address",
          "name": "_talent",
          "type": "address"
        }
      ],
      "name": "withdrawTalentRewards",
      "outputs": [
        {
          "internalType": "bool",
          "name": "",
          "type": "bool"
        }
      ],
      "stateMutability": "nonpayable",
      "type": "function"
    }
  ],
  "bytecode": "0x608060405234801561001057600080fd5b506161ec80620000216000396000f3fe608060405234801561001057600080fd5b50600436106103625760003560e01c80639010d07c116101c8578063b435842c11610104578063d547741f116100a2578063ef5cfb8c1161007c578063ef5cfb8c1461077e578063efbe1c1c14610791578063f18d20be1461079a578063fc0c546a146107a257600080fd5b8063d547741f14610755578063ed2f236914610768578063ee0708051461077157600080fd5b8063c45a0155116100de578063c45a01551461070e578063ca15c87314610726578063d199053814610739578063d4ce57891461074257600080fd5b8063b435842c146106f5578063be9a6555146106fd578063bf55bd971461070657600080fd5b80639e1a4d1911610171578063a8bc58f21161014b578063a8bc58f2146106a9578063aa0b0179146106b1578063aef2200d146106d9578063b0e31b2d146106ec57600080fd5b80639e1a4d1914610624578063a217fddf1461062c578063a4e47b661461063457600080fd5b806391d14854116101a257806391d14854146105c5578063977bee8e146105fe578063992642e51461061157600080fd5b80639010d07c1461057e57806390484673146105a957806391b70f60146105b257600080fd5b806342c0e5ef116102a25780636a61e5fc116102405780637eefc5251161021a5780637eefc525146105235780637ff9b5961461053657806388a7ca5c1461053f5780638ba2855d1461056b57600080fd5b80636a61e5fc146104dd57806371f19f94146104f05780637773a92b1461050357600080fd5b80634be1c7961161027c5780634be1c796146104a55780635e7a0752146104ae578063683b4430146104c15780636a0675cf146104d457600080fd5b806342c0e5ef1461046c57806342d866931461047f57806343f49d891461049257600080fd5b80632f2770db1161030f57806336568abe116102e957806336568abe1461041e5780633a98ef39146104315780633b039b9e146104395780633dbf35631461044c57600080fd5b80632f2770db146103f05780632f2ff15d146103f857806335e8041e1461040b57600080fd5b806322b3a6a11161034057806322b3a6a1146103bb578063248a9ca3146103c457806325b58c87146103e757600080fd5b806301ffc9a714610367578063144fa6d71461038f5780631ea18fc5146103a4575b600080fd5b61037a610375366004615b8f565b6107b5565b60405190151581526020015b60405180910390f35b6103a261039d3660046158b1565b6107c6565b005b6103ad60d25481565b604051908152602001610386565b6103ad60d65481565b6103ad6103d2366004615b2f565b60009081526065602052604090206001015490565b6103ad60d35481565b6103a2610a39565b6103a2610406366004615b48565b610aaf565b6103a2610419366004615a04565b610ad9565b6103a261042c366004615b48565b610d74565b60d4546103ad565b61037a6104473660046158b1565b610e00565b6103ad61045a3660046158b1565b60ce6020526000908152604090205481565b6103ad61047a366004615b2f565b6110d1565b61037a61048d3660046158b1565b6110f3565b6103ad6104a03660046158b1565b6113a3565b6103ad60db5481565b6103a26104bc366004615ae1565b61153d565b6103a26104cf3660046158b1565b6116ce565b6103ad60d85481565b6103a26104eb366004615b2f565b611886565b6103a26104fe366004615b2f565b611897565b6103ad6105113660046158b1565b60cf6020526000908152604090205481565b6103ad610531366004615b2f565b611aa5565b6103ad60d15481565b61055261054d366004615965565b611abd565b6040516001600160e01b03199091168152602001610386565b61037a6105793660046158eb565b611e13565b61059161058c366004615b6d565b612065565b6040516001600160a01b039091168152602001610386565b6103ad60dc5481565b6103a26105c0366004615c66565b61207d565b61037a6105d3366004615b48565b60009182526065602090815260408084206001600160a01b0393909316845291905290205460ff1690565b61037a61060c366004615ae1565b6122b6565b60c954610591906001600160a01b031681565b6103ad6128f8565b6103ad600081565b61067f6106423660046158eb565b60cb602090815260009283526040808420909152908252902080546001820154600283015460038401546004909401549293919290919060ff1685565b6040805195865260208601949094529284019190915260608301521515608082015260a001610386565b6103ad61297a565b6106c46106bf366004615924565b612999565b60408051928352602083019190915201610386565b6103ad6106e7366004615b2f565b612b40565b6103ad60d45481565b6103ad612b4e565b6103ad60d95481565b6103a2612b7f565b60d0546105919061010090046001600160a01b031681565b6103ad610734366004615b2f565b612c88565b6103ad60d75481565b6103ad610750366004615b2f565b612c9f565b6103a2610763366004615b48565b612cb8565b6103ad60cc5481565b60d05461037a9060ff1681565b61037a61078c3660046158b1565b612cdd565b6103ad60da5481565b6103a2612db0565b60ca54610591906001600160a01b031681565b60006107c082612fd7565b92915050565b60006107d181613015565b60ca546001600160a01b03161561082f5760405162461bcd60e51b815260206004820152601460248201527f537461626c6520636f696e2064697361626c656400000000000000000000000060448201526064015b60405180910390fd5b6001600160a01b0382166108855760405162461bcd60e51b815260206004820152601360248201527f41646472657373206d75737420626520736574000000000000000000000000006044820152606401610826565b6108b86001600160a01b0383167f36372b070000000000000000000000000000000000000000000000000000000061301f565b6109045760405162461bcd60e51b815260206004820152601760248201527f6e6f7420612076616c696420455243323020746f6b656e0000000000000000006044820152606401610826565b60008290506109bc816001600160a01b03166395d89b416040518163ffffffff1660e01b815260040160006040518083038186803b15801561094557600080fd5b505afa158015610959573d6000803e3d6000fd5b505050506040513d6000823e601f3d908101601f191682016040526109819190810190615bb9565b6040518060400160405280600381526020017f54414c000000000000000000000000000000000000000000000000000000000081525061303b565b610a085760405162461bcd60e51b815260206004820152601560248201527f746f6b656e206e616d65206973206e6f742054414c00000000000000000000006044820152606401610826565b505060ca805473ffffffffffffffffffffffffffffffffffffffff19166001600160a01b0392909216919091179055565b6000610a4481613015565b60d05460ff1615610a975760405162461bcd60e51b815260206004820152601060248201527f616c72656164792064697361626c6564000000000000000000000000000000006044820152606401610826565b610a9f613047565b5060d0805460ff19166001179055565b600082815260656020526040902060010154610aca81613015565b610ad4838361308c565b505050565b8051825114610b505760405162461bcd60e51b815260206004820152602560248201527f7374616b65686f6c6465727320616e6420616d6f756e747320646f206e6f742060448201527f6d617463680000000000000000000000000000000000000000000000000000006064820152608401610826565b60d05460ff1615610ba35760405162461bcd60e51b815260206004820152601960248201527f7374616b696e6720686173206265656e2064697361626c6564000000000000006044820152606401610826565b826001600160a01b031663ee0708056040518163ffffffff1660e01b815260040160206040518083038186803b158015610bdc57600080fd5b505afa158015610bf0573d6000803e3d6000fd5b505050506040513d601f19601f82011682018060405250810190610c149190615b0d565b15610c615760405162461bcd60e51b815260206004820152601e60248201527f54616c656e7420746f6b656e20686173206265656e2064697361626c656400006044820152606401610826565b60005b8251811015610d6e576000610c91838381518110610c8457610c84616175565b6020026020010151611aa5565b9050828281518110610ca557610ca5616175565b602002602001015160d36000828254610cbe9190615e32565b92505081905550610ce9848381518110610cda57610cda616175565b602002602001015186836130ae565b846001600160a01b0316848381518110610d0557610d05616175565b60200260200101516001600160a01b03167f929ad80cfbf532d1e879107de0553ee80942d13c8043f2b2615f9b15b87d10da836001604051610d539291909182521515602082015260400190565b60405180910390a35080610d6681616102565b915050610c64565b50505050565b6001600160a01b0381163314610df25760405162461bcd60e51b815260206004820152602f60248201527f416363657373436f6e74726f6c3a2063616e206f6e6c792072656e6f756e636560448201527f20726f6c657320666f722073656c6600000000000000000000000000000000006064820152608401610826565b610dfc82826132c8565b5050565b6000610e1660ca546001600160a01b0316151590565b610e625760405162461bcd60e51b815260206004820152601560248201527f54414c20746f6b656e206e6f74207965742073657400000000000000000000006044820152606401610826565b816001600160a01b031663c4daa5936040518163ffffffff1660e01b815260040160206040518083038186803b158015610e9b57600080fd5b505afa158015610eaf573d6000803e3d6000fd5b505050506040513d601f19601f82011682018060405250810190610ed391906158ce565b6001600160a01b0316336001600160a01b031614610f595760405162461bcd60e51b815260206004820152602d60248201527f6f6e6c79207468652074616c656e742063616e2077697468647261772074686560448201527f6972206f776e20736861726573000000000000000000000000000000000000006064820152608401610826565b816001600160a01b031663ee0708056040518163ffffffff1660e01b815260040160206040518083038186803b158015610f9257600080fd5b505afa158015610fa6573d6000803e3d6000fd5b505050506040513d601f19601f82011682018060405250810190610fca9190615b0d565b156110175760405162461bcd60e51b815260206004820152601e60248201527f54616c656e7420746f6b656e20686173206265656e2064697361626c656400006044820152606401610826565b6001600160a01b03828116600090815260ce6020526040908190205460ca54915163a9059cbb60e01b8152336004820152602481018290529092919091169063a9059cbb90604401602060405180830381600087803b15801561107957600080fd5b505af115801561108d573d6000803e3d6000fd5b505050506040513d601f19601f820116820180604052508101906110b19190615b0d565b5050506001600160a01b0316600090815260ce6020526040812055600190565b60d2546000906110e983670de0b6b3a764000061604a565b6107c09190615e78565b600061110960ca546001600160a01b0316151590565b6111555760405162461bcd60e51b815260206004820152601560248201527f54414c20746f6b656e206e6f74207965742073657400000000000000000000006044820152606401610826565b60dd543390839060ff161561123757836001600160a01b031663ee0708056040518163ffffffff1660e01b815260040160206040518083038186803b15801561119d57600080fd5b505afa1580156111b1573d6000803e3d6000fd5b505050506040513d601f19601f820116820180604052508101906111d59190615b0d565b156112225760405162461bcd60e51b815260206004820152601e60248201527f54616c656e7420746f6b656e20686173206265656e2064697361626c656400006044820152606401610826565b61122e338560006132ea565b6001925061139c565b60dd805460ff191660011790556001600160a01b03808316600090815260cb6020908152604080832093851683529290529081205461127590613d51565b9050846001600160a01b031663ee0708056040518163ffffffff1660e01b815260040160206040518083038186803b1580156112b057600080fd5b505afa1580156112c4573d6000803e3d6000fd5b505050506040513d601f19601f820116820180604052508101906112e89190615b0d565b156113355760405162461bcd60e51b815260206004820152601e60248201527f54616c656e7420746f6b656e20686173206265656e2064697361626c656400006044820152606401610826565b611341338660006132ea565b600193506001600160a01b03808416600090815260cb6020908152604080832093861683529290522054819061137690613d51565b60d6546113839190615e32565b61138d91906160a8565b60d6555060dd805460ff191690555b5050919050565b60006113ae82613dc8565b6113fa5760405162461bcd60e51b815260206004820152601860248201527f6e6f7420612076616c69642074616c656e7420746f6b656e00000000000000006044820152606401610826565b816001600160a01b031663ee0708056040518163ffffffff1660e01b815260040160206040518083038186803b15801561143357600080fd5b505afa158015611447573d6000803e3d6000fd5b505050506040513d601f19601f8201168201806040525081019061146b9190615b0d565b156114b85760405162461bcd60e51b815260206004820152601e60248201527f54616c656e7420746f6b656e20686173206265656e2064697361626c656400006044820152606401610826565b6000826001600160a01b031663aafa93716040518163ffffffff1660e01b815260040160206040518083038186803b1580156114f357600080fd5b505afa158015611507573d6000803e3d6000fd5b505050506040513d601f19601f8201168201806040525081019061152b9190615c4d565b905061153681612c9f565b9392505050565b816001600160a01b031663c4daa5936040518163ffffffff1660e01b815260040160206040518083038186803b15801561157657600080fd5b505afa15801561158a573d6000803e3d6000fd5b505050506040513d601f19601f820116820180604052508101906115ae91906158ce565b6001600160a01b0316336001600160a01b0316146116345760405162461bcd60e51b815260206004820152602560248201527f6f6e6c79207468652074616c656e742063616e2064697361626c65207468652060448201527f746f6b656e0000000000000000000000000000000000000000000000000000006064820152608401610826565b816001600160a01b0316632f2770db6040518163ffffffff1660e01b8152600401600060405180830381600087803b15801561166f57600080fd5b505af1158015611683573d6000803e3d6000fd5b50505050816001600160a01b03167f35ab2968b19ad32e6e3a6a56284a1d93810fd54fec17143435a9d194b57be8ab826040516116c291815260200190565b60405180910390a25050565b600054610100900460ff16158080156116ee5750600054600160ff909116105b806117085750303b158015611708575060005460ff166001145b61176b5760405162461bcd60e51b815260206004820152602e60248201527f496e697469616c697a61626c653a20636f6e747261637420697320616c72656160448201526d191e481a5b9a5d1a585b1a5e995960921b6064820152608401610826565b6000805460ff19166001179055801561178e576000805461ff0019166101001790555b6001600160a01b03821661180a5760405162461bcd60e51b815260206004820152602160248201527f737461626c652d636f696e2061646472657373206d7573742062652076616c6960448201527f64000000000000000000000000000000000000000000000000000000000000006064820152608401610826565b60c9805473ffffffffffffffffffffffffffffffffffffffff19166001600160a01b03841617905561183d600033613e64565b8015610dfc576000805461ff0019169055604051600181527f7f26b83ff96e1f2b6a682f133852f6798a09c465da95921460cefb38474024989060200160405180910390a15050565b600061189181613015565b5060d155565b60006118a281613015565b60ca546001600160a01b03166118fa5760405162461bcd60e51b815260206004820152601560248201527f54414c20746f6b656e206e6f74207965742073657400000000000000000000006044820152606401610826565b60d3548211156119725760405162461bcd60e51b815260206004820152602b60248201527f6e6f7420656e6f75676820737461626c6520636f696e206c65667420696e207460448201527f686520636f6e74726163740000000000000000000000000000000000000000006064820152608401610826565b600061197d83611aa5565b90508260d3600082825461199191906160a8565b909155505060ca546040516323b872dd60e01b8152336004820152306024820152604481018390526001600160a01b03909116906323b872dd90606401602060405180830381600087803b1580156119e857600080fd5b505af11580156119fc573d6000803e3d6000fd5b505050506040513d601f19601f82011682018060405250810190611a209190615b0d565b5060c95460405163a9059cbb60e01b8152336004820152602481018590526001600160a01b039091169063a9059cbb90604401602060405180830381600087803b158015611a6d57600080fd5b505af1158015611a81573d6000803e3d6000fd5b505050506040513d601f19601f82011682018060405250810190610d6e9190615b0d565b60d1546000906110e983670de0b6b3a764000061604a565b600060d954421015611b115760405162461bcd60e51b815260206004820152601e60248201527f7374616b696e6720706572696f64206e6f7420796574207374617274656400006044820152606401610826565b60da54421115611b635760405162461bcd60e51b815260206004820152601f60248201527f7374616b696e6720706572696f6420616c72656164792066696e6973686564006044820152606401610826565b60ca546001600160a01b0316331415611c895760d05460ff1615611bc95760405162461bcd60e51b815260206004820152601960248201527f7374616b696e6720686173206265656e2064697361626c6564000000000000006044820152606401610826565b6000611c0a84848080601f016020809104026020016040519081016040528093929190818152602001838380828437600092019190915250613e6e92505050565b9050611c178682876130ae565b60408051868152600060208201526001600160a01b0380841692908916917f929ad80cfbf532d1e879107de0553ee80942d13c8043f2b2615f9b15b87d10da910160405180910390a37f88a7ca5c75456956db1e96e88ee87aca8bdad85895835c2dc76fcc96396569cf915050611e0a565b611c9233613dc8565b15611d9c5760ca546001600160a01b0316611d155760405162461bcd60e51b815260206004820152602a60248201527f54414c20746f6b656e206e6f7420796574207365742e20526566756e64206e6f60448201527f7420706f737369626c65000000000000000000000000000000000000000000006064820152608401610826565b336000611d23878388613ec9565b9050816001600160a01b0316876001600160a01b03167f390b1276974b9463e5d66ab10df69b6f3d7b930eb066a0e66df327edd2cc811c83604051611d6a91815260200190565b60405180910390a37f88a7ca5c75456956db1e96e88ee87aca8bdad85895835c2dc76fcc96396569cf92505050611e0a565b60405162461bcd60e51b815260206004820152602360248201527f556e7265636f676e697a6564204552433133363320746f6b656e20726563656960448201527f76656400000000000000000000000000000000000000000000000000000000006064820152608401610826565b95945050505050565b60dd546000908390839060ff1615611ef857836001600160a01b031663ee0708056040518163ffffffff1660e01b815260040160206040518083038186803b158015611e5e57600080fd5b505afa158015611e72573d6000803e3d6000fd5b505050506040513d601f19601f82011682018060405250810190611e969190615b0d565b15611ee35760405162461bcd60e51b815260206004820152601e60248201527f54616c656e7420746f6b656e20686173206265656e2064697361626c656400006044820152606401610826565b611eef858560016132ea565b6001925061205d565b60dd805460ff191660011790556001600160a01b03808316600090815260cb60209081526040808320938516835292905290812054611f3690613d51565b9050846001600160a01b031663ee0708056040518163ffffffff1660e01b815260040160206040518083038186803b158015611f7157600080fd5b505afa158015611f85573d6000803e3d6000fd5b505050506040513d601f19601f82011682018060405250810190611fa99190615b0d565b15611ff65760405162461bcd60e51b815260206004820152601e60248201527f54616c656e7420746f6b656e20686173206265656e2064697361626c656400006044820152606401610826565b612002868660016132ea565b600193506001600160a01b03808416600090815260cb6020908152604080832093861683529290522054819061203790613d51565b60d6546120449190615e32565b61204e91906160a8565b60d6555060dd805460ff191690555b505092915050565b60008281526097602052604081206115369083614565565b600054610100900460ff161580801561209d5750600054600160ff909116105b806120b75750303b1580156120b7575060005460ff166001145b61211a5760405162461bcd60e51b815260206004820152602e60248201527f496e697469616c697a61626c653a20636f6e747261637420697320616c72656160448201526d191e481a5b9a5d1a585b1a5e995960921b6064820152608401610826565b6000805460ff19166001179055801561213d576000805461ff0019166101001790555b6000831161218d5760405162461bcd60e51b815260206004820152601760248201527f5f746f6b656e50726963652063616e6e6f7420626520300000000000000000006044820152606401610826565b600082116121dd5760405162461bcd60e51b815260206004820152601860248201527f5f74616c656e7450726963652063616e6e6f74206265203000000000000000006044820152606401610826565b6121e5614571565b6121ed614571565b6121f5614571565b6121fe856116ce565b612206612b7f565b60d988905560da87905560d786905560d080547fffffffffffffffffffffff0000000000000000000000000000000000000000ff166101006001600160a01b0387160217905560d183905560d282905560dc889055612266600033613e64565b80156122ac576000805461ff0019169055604051600181527f7f26b83ff96e1f2b6a682f133852f6798a09c465da95921460cefb38474024989060200160405180910390a15b5050505050505050565b600060d95442101561230a5760405162461bcd60e51b815260206004820152601e60248201527f7374616b696e6720706572696f64206e6f7420796574207374617274656400006044820152606401610826565b60da5442111561235c5760405162461bcd60e51b815260206004820152601f60248201527f7374616b696e6720706572696f6420616c72656164792066696e6973686564006044820152606401610826565b60ca546001600160a01b0316156123b55760405162461bcd60e51b815260206004820152601460248201527f537461626c6520636f696e2064697361626c65640000000000000000000000006044820152606401610826565b60dd543390849060ff1615612628576000841161240c5760405162461bcd60e51b8152602060048201526015602482015274616d6f756e742063616e6e6f74206265207a65726f60581b6044820152606401610826565b60d05460ff161561245f5760405162461bcd60e51b815260206004820152601960248201527f7374616b696e6720686173206265656e2064697361626c6564000000000000006044820152606401610826565b846001600160a01b031663ee0708056040518163ffffffff1660e01b815260040160206040518083038186803b15801561249857600080fd5b505afa1580156124ac573d6000803e3d6000fd5b505050506040513d601f19601f820116820180604052508101906124d09190615b0d565b1561251d5760405162461bcd60e51b815260206004820152601e60248201527f54616c656e7420746f6b656e20686173206265656e2064697361626c656400006044820152606401610826565b600061252885611aa5565b90508460d3600082825461253c9190615e32565b9091555061254d90503387836130ae565b60c9546040516323b872dd60e01b8152336004820152306024820152604481018790526001600160a01b03909116906323b872dd90606401602060405180830381600087803b15801561259f57600080fd5b505af11580156125b3573d6000803e3d6000fd5b505050506040513d601f19601f820116820180604052508101906125d79190615b0d565b5060408051828152600160208201526001600160a01b0388169133917f929ad80cfbf532d1e879107de0553ee80942d13c8043f2b2615f9b15b87d10da910160405180910390a3600193505061205d565b60dd805460ff191660011790556001600160a01b03808316600090815260cb6020908152604080832093851683529290529081205461266690613d51565b9050600085116126b05760405162461bcd60e51b8152602060048201526015602482015274616d6f756e742063616e6e6f74206265207a65726f60581b6044820152606401610826565b60d05460ff16156127035760405162461bcd60e51b815260206004820152601960248201527f7374616b696e6720686173206265656e2064697361626c6564000000000000006044820152606401610826565b856001600160a01b031663ee0708056040518163ffffffff1660e01b815260040160206040518083038186803b15801561273c57600080fd5b505afa158015612750573d6000803e3d6000fd5b505050506040513d601f19601f820116820180604052508101906127749190615b0d565b156127c15760405162461bcd60e51b815260206004820152601e60248201527f54616c656e7420746f6b656e20686173206265656e2064697361626c656400006044820152606401610826565b60006127cc86611aa5565b90508560d360008282546127e09190615e32565b909155506127f190503388836130ae565b60c9546040516323b872dd60e01b8152336004820152306024820152604481018890526001600160a01b03909116906323b872dd90606401602060405180830381600087803b15801561284357600080fd5b505af1158015612857573d6000803e3d6000fd5b505050506040513d601f19601f8201168201806040525081019061287b9190615b0d565b5060408051828152600160208201526001600160a01b0389169133917f929ad80cfbf532d1e879107de0553ee80942d13c8043f2b2615f9b15b87d10da910160405180910390a360019450506001600160a01b03808416600090815260cb6020908152604080832093861683529290522054819061203790613d51565b60ca546040516370a0823160e01b81523060048201526000916001600160a01b0316906370a08231906024015b60206040518083038186803b15801561293d57600080fd5b505afa158015612951573d6000803e3d6000fd5b505050506040513d601f19601f820116820180604052508101906129759190615c4d565b905090565b600060d55460d85460d75461298f91906160a8565b61297591906160a8565b6001600160a01b03808416600090815260cb60209081526040808320938616835292815282822060cf90915291812054909182918290156129f357506001600160a01b038516600090815260cf6020526040902054612a1c565b60d654612a0260dc54876145f0565b612a0c9190615e78565b60db54612a199190615e32565b90505b6000866001600160a01b031663c4daa5936040518163ffffffff1660e01b815260040160206040518083038186803b158015612a5757600080fd5b505afa158015612a6b573d6000803e3d6000fd5b505050506040513d601f19601f82011682018060405250810190612a8f91906158ce565b6040516370a0823160e01b81526001600160a01b0380831660048301529192506000918916906370a082319060240160206040518083038186803b158015612ad657600080fd5b505afa158015612aea573d6000803e3d6000fd5b505050506040513d601f19601f82011682018060405250810190612b0e9190615c4d565b9050600080612b2c86600001548760030154878960010154876146a9565b90985096505050505050505b935093915050565b60006107c061047a83611aa5565b60c9546040516370a0823160e01b81523060048201526000916001600160a01b0316906370a0823190602401612925565b600054610100900460ff1615808015612b9f5750600054600160ff909116105b80612bb95750303b158015612bb9575060005460ff166001145b612c1c5760405162461bcd60e51b815260206004820152602e60248201527f496e697469616c697a61626c653a20636f6e747261637420697320616c72656160448201526d191e481a5b9a5d1a585b1a5e995960921b6064820152608401610826565b6000805460ff191660011790558015612c3f576000805461ff0019166101001790555b8015612c85576000805461ff0019169055604051600181527f7f26b83ff96e1f2b6a682f133852f6798a09c465da95921460cefb38474024989060200160405180910390a15b50565b60008181526097602052604081206107c090614703565b6000670de0b6b3a764000060d254836110e9919061604a565b600082815260656020526040902060010154612cd381613015565b610ad483836132c8565b6000816001600160a01b031663ee0708056040518163ffffffff1660e01b815260040160206040518083038186803b158015612d1857600080fd5b505afa158015612d2c573d6000803e3d6000fd5b505050506040513d601f19601f82011682018060405250810190612d509190615b0d565b15612d9d5760405162461bcd60e51b815260206004820152601e60248201527f54616c656e7420746f6b656e20686173206265656e2064697361626c656400006044820152606401610826565b612da73383611e13565b50600192915050565b6000612dbb81613015565b60d05460ff1680612dcd575060da5442105b612e3f5760405162461bcd60e51b815260206004820152602b60248201527f6e6f742064697361626c65642c20616e64206e6f7420656e64206f662073746160448201527f6b696e67206569746865720000000000000000000000000000000000000000006064820152608401610826565b60cc5415612edb5760405162461bcd60e51b815260206004820152605060248201527f746865726520617265207374696c6c207374616b657320616363756d756c617460448201527f696e6720726577617264732e2043616c6c2060636c61696d526577617264734f60648201527f6e426568616c6660206f6e207468656d00000000000000000000000000000000608482015260a401610826565b6000612ee561297a565b905060008111612f375760405162461bcd60e51b815260206004820152601860248201527f6e6f7468696e67206c65667420746f20776974686472617700000000000000006044820152606401610826565b60ca5460405163a9059cbb60e01b8152336004820152602481018390526001600160a01b039091169063a9059cbb90604401602060405180830381600087803b158015612f8357600080fd5b505af1158015612f97573d6000803e3d6000fd5b505050506040513d601f19601f82011682018060405250810190612fbb9190615b0d565b508060d56000828254612fce9190615e32565b90915550505050565b60006001600160e01b031982167f5a05180f0000000000000000000000000000000000000000000000000000000014806107c057506107c08261470d565b612c85813361475b565b600061302a836147db565b80156115365750611536838361480e565b6000611536838361490c565b60d05460ff161561305457565b60d45461305d57565b60d65461306c60dc54426145f0565b6130769190615e78565b60db546130839190615e32565b60db554260dc55565b6130968282614931565b6000828152609760205260409020610ad490826149d3565b60dd548390839060ff1615613176576130c684613dc8565b6131125760405162461bcd60e51b815260206004820152601860248201527f6e6f7420612076616c69642074616c656e7420746f6b656e00000000000000006044820152606401610826565b6000831161315a5760405162461bcd60e51b8152602060048201526015602482015274616d6f756e742063616e6e6f74206265207a65726f60581b6044820152606401610826565b613166858560016132ea565b6131718585856149e8565b6132c1565b60dd805460ff191660011790556001600160a01b03808316600090815260cb602090815260408083209385168352929052908120546131b490613d51565b90506131bf85613dc8565b61320b5760405162461bcd60e51b815260206004820152601860248201527f6e6f7420612076616c69642074616c656e7420746f6b656e00000000000000006044820152606401610826565b600084116132535760405162461bcd60e51b8152602060048201526015602482015274616d6f756e742063616e6e6f74206265207a65726f60581b6044820152606401610826565b61325f868660016132ea565b61326a8686866149e8565b6001600160a01b03808416600090815260cb6020908152604080832093861683529290522054819061329b90613d51565b60d6546132a89190615e32565b6132b291906160a8565b60d6555060dd805460ff191690555b5050505050565b6132d28282614aa0565b6000828152609760205260409020610ad49082614b23565b60dd548390839060ff161561382a576001600160a01b03808616600090815260cb60209081526040808320938816835292905220613326613047565b6000856001600160a01b031663c4daa5936040518163ffffffff1660e01b815260040160206040518083038186803b15801561336157600080fd5b505afa158015613375573d6000803e3d6000fd5b505050506040513d601f19601f8201168201806040525081019061339991906158ce565b6001600160a01b038716600090815260cf6020526040812054919250906133c25760db546133dc565b6001600160a01b038716600090815260cf60205260409020545b8354600385015460018601546040516370a0823160e01b81526001600160a01b0387811660048301529495506000948594613479949093909288928f16906370a08231906024015b60206040518083038186803b15801561343c57600080fd5b505afa158015613450573d6000803e3d6000fd5b505050506040513d601f19601f820116820180604052508101906134749190615c4d565b6146a9565b90925090506134888183615e32565b60d860008282546134999190615e32565b9091555050600385018390554260028601556001600160a01b038916600090815260ce6020526040812080548392906134d3908490615e32565b909155505060d05460ff1680156134ef5750600485015460ff16155b1561351e5760048501805460ff1916600190811790915560cc80546000906135189084906160a8565b90915550505b8161352d5750505050506132c1565b600088600181111561354157613541616149565b14156136295760ca5460405163a9059cbb60e01b81526001600160a01b038c81166004830152602482018590529091169063a9059cbb90604401602060405180830381600087803b15801561359557600080fd5b505af11580156135a9573d6000803e3d6000fd5b505050506040513d601f19601f820116820180604052508101906135cd9190615b0d565b50886001600160a01b03168a6001600160a01b03167f013ceff621e16e2f96e454db0b811d5e35d3be38beab8a6bf4be6a3dc8cd23f3848460405161361c929190918252602082015260400190565b60405180910390a3613820565b600188600181111561363d5761363d616149565b14156137d857600061364e8a6113a3565b9050600083821161365f5781613661565b835b9050600061366f82866160a8565b905061367c8d8d846149e8565b8b6001600160a01b03168d6001600160a01b03167f661cda9d247039eabdcc72b8fed0de4ce46c907660a504c7e40889080fbd559084876040516136ca929190918252602082015260400190565b60405180910390a36000811180156136ec575060ca546001600160a01b031615155b156137d05760ca5460405163a9059cbb60e01b81526001600160a01b038f81166004830152602482018490529091169063a9059cbb90604401602060405180830381600087803b15801561373f57600080fd5b505af1158015613753573d6000803e3d6000fd5b505050506040513d601f19601f820116820180604052508101906137779190615b0d565b508b6001600160a01b03168d6001600160a01b03167f013ceff621e16e2f96e454db0b811d5e35d3be38beab8a6bf4be6a3dc8cd23f38360006040516137c7929190918252602082015260400190565b60405180910390a35b505050613820565b60405162461bcd60e51b815260206004820152601e60248201527f556e7265636f676e697a656420636865636b706f696e7420616374696f6e00006044820152606401610826565b50505050506132c1565b60dd805460ff191660011790556001600160a01b03808316600090815260cb6020908152604080832093851683529290529081205461386890613d51565b6001600160a01b03808816600090815260cb60209081526040808320938a16835292905220909150613898613047565b6000866001600160a01b031663c4daa5936040518163ffffffff1660e01b815260040160206040518083038186803b1580156138d357600080fd5b505afa1580156138e7573d6000803e3d6000fd5b505050506040513d601f19601f8201168201806040525081019061390b91906158ce565b6001600160a01b038816600090815260cf6020526040812054919250906139345760db5461394e565b6001600160a01b038816600090815260cf60205260409020545b90506000806139a1856000015486600301548588600101548e6001600160a01b03166370a082318a6040518263ffffffff1660e01b815260040161342491906001600160a01b0391909116815260200190565b90925090506139b08183615e32565b60d860008282546139c19190615e32565b9091555050600385018390554260028601556001600160a01b038a16600090815260ce6020526040812080548392906139fb908490615e32565b909155505060d05460ff168015613a175750600485015460ff16155b15613a465760048501805460ff1916600190811790915560cc8054600090613a409084906160a8565b90915550505b81613a5557505050505061326a565b6000896001811115613a6957613a69616149565b1415613b515760ca5460405163a9059cbb60e01b81526001600160a01b038d81166004830152602482018590529091169063a9059cbb90604401602060405180830381600087803b158015613abd57600080fd5b505af1158015613ad1573d6000803e3d6000fd5b505050506040513d601f19601f82011682018060405250810190613af59190615b0d565b50896001600160a01b03168b6001600160a01b03167f013ceff621e16e2f96e454db0b811d5e35d3be38beab8a6bf4be6a3dc8cd23f38484604051613b44929190918252602082015260400190565b60405180910390a3613d1f565b6001896001811115613b6557613b65616149565b14156137d8576000613b768b6113a3565b90506000838211613b875781613b89565b835b90506000613b9782866160a8565b9050613ba48e8e846149e8565b8c6001600160a01b03168e6001600160a01b03167f661cda9d247039eabdcc72b8fed0de4ce46c907660a504c7e40889080fbd55908487604051613bf2929190918252602082015260400190565b60405180910390a3600081118015613c14575060ca546001600160a01b031615155b15613d1b5760ca60009054906101000a90046001600160a01b03166001600160a01b031663a9059cbb8f836040518363ffffffff1660e01b8152600401613c709291906001600160a01b03929092168252602082015260400190565b602060405180830381600087803b158015613c8a57600080fd5b505af1158015613c9e573d6000803e3d6000fd5b505050506040513d601f19601f82011682018060405250810190613cc29190615b0d565b508c6001600160a01b03168e6001600160a01b03167f013ceff621e16e2f96e454db0b811d5e35d3be38beab8a6bf4be6a3dc8cd23f3836000604051613d12929190918252602082015260400190565b60405180910390a35b5050505b50505050506001600160a01b03808416600090815260cb6020908152604080832093861683529290522054819061329b905b600081613d6057506000919050565b60038211613d7057506001919050565b60006002613d7f846001615e32565b613d899190615e78565b90508291505b81811015613dc257905080600281613da78186615e78565b613db19190615e32565b613dbb9190615e78565b9050613d8f565b50919050565b60d0546040517f099aba560000000000000000000000000000000000000000000000000000000081526001600160a01b0383811660048301526000926101009004169063099aba569060240160206040518083038186803b158015613e2c57600080fd5b505afa158015613e40573d6000803e3d6000fd5b505050506040513d601f19601f820116820180604052508101906107c09190615b0d565b610dfc828261308c565b60008151601414613ec15760405162461bcd60e51b815260206004820152601f60248201527f696e76616c69642064617461206c656e67746820666f722061646472657373006044820152606401610826565b506014015190565b60dd546000908490849060ff16156141d357613ee485613dc8565b613f305760405162461bcd60e51b815260206004820152601860248201527f6e6f7420612076616c69642074616c656e7420746f6b656e00000000000000006044820152606401610826565b6001600160a01b03808716600090815260cb60209081526040808320938916835292905220600181015485148015613f7357613f6e888860006132ea565b613f7f565b613f7f888860016132ea565b6001600160a01b03808916600090815260cb60209081526040808320938b168352929052206002810154909250613ff85760405162461bcd60e51b815260206004820152601460248201527f7374616b6520646f6573206e6f742065786973740000000000000000000000006044820152606401610826565b858260010154101561400957600080fd5b60018201546000906140206402540be4008961604a565b61402a9190615e78565b905060006402540be400828560000154614044919061604a565b61404e9190615e78565b60ca546040516370a0823160e01b815230600482015291925082916001600160a01b03909116906370a082319060240160206040518083038186803b15801561409657600080fd5b505afa1580156140aa573d6000803e3d6000fd5b505050506040513d601f19601f820116820180604052508101906140ce9190615c4d565b10156141265760405162461bcd60e51b815260206004820152602160248201527f6e6f7420656e6f7567682054414c20746f2066756c66696c6c207265717565736044820152601d60fa1b6064820152608401610826565b8784600101600082825461413a91906160a8565b90915550508354819085906000906141539084906160a8565b925050819055508060d4600082825461416c91906160a8565b909155505083541580156141855750600484015460ff16155b156141b45760048401805460ff1916600190811790915560cc80546000906141ae9084906160a8565b90915550505b6141be8989614b38565b6141c88a82614bb5565b955061455c92505050565b60dd805460ff191660011790556001600160a01b03808316600090815260cb6020908152604080832093851683529290529081205461421190613d51565b905061421c86613dc8565b6142685760405162461bcd60e51b815260206004820152601860248201527f6e6f7420612076616c69642074616c656e7420746f6b656e00000000000000006044820152606401610826565b6001600160a01b03808816600090815260cb60209081526040808320938a168352929052206001810154861480156142ab576142a6898960006132ea565b6142b7565b6142b7898960016132ea565b6001600160a01b03808a16600090815260cb60209081526040808320938c1683529290522060028101549092506143305760405162461bcd60e51b815260206004820152601460248201527f7374616b6520646f6573206e6f742065786973740000000000000000000000006044820152606401610826565b868260010154101561434157600080fd5b60018201546000906143586402540be4008a61604a565b6143629190615e78565b905060006402540be40082856000015461437c919061604a565b6143869190615e78565b60ca546040516370a0823160e01b815230600482015291925082916001600160a01b03909116906370a082319060240160206040518083038186803b1580156143ce57600080fd5b505afa1580156143e2573d6000803e3d6000fd5b505050506040513d601f19601f820116820180604052508101906144069190615c4d565b101561445e5760405162461bcd60e51b815260206004820152602160248201527f6e6f7420656e6f7567682054414c20746f2066756c66696c6c207265717565736044820152601d60fa1b6064820152608401610826565b8884600101600082825461447291906160a8565b909155505083548190859060009061448b9084906160a8565b925050819055508060d460008282546144a491906160a8565b909155505083541580156144bd5750600484015460ff16155b156144ec5760048401805460ff1916600190811790915560cc80546000906144e69084906160a8565b90915550505b6144f68a8a614b38565b6145008b82614bb5565b96505050506001600160a01b03808416600090815260cb6020908152604080832093861683529290522054819061453690613d51565b60d6546145439190615e32565b61454d91906160a8565b60d6555060dd805460ff191690555b50509392505050565b60006115368383614c3b565b600054610100900460ff166145ee5760405162461bcd60e51b815260206004820152602b60248201527f496e697469616c697a61626c653a20636f6e7472616374206973206e6f74206960448201527f6e697469616c697a696e670000000000000000000000000000000000000000006064820152608401610826565b565b60008060006145ff8585614c65565b915091506000806146108484615038565b915091506000614620838361527e565b9050306001600160a01b031663d19905386040518163ffffffff1660e01b815260040160206040518083038186803b15801561465b57600080fd5b505afa15801561466f573d6000803e3d6000fd5b505050506040513d601f19601f820116820180604052508101906146939190615c4d565b61469d908261604a565b98975050505050505050565b600080806402540be4006146bd88886160a8565b6146c68a613d51565b6146d0919061604a565b6146da9190615e78565b905060006146e98287876152e1565b90506146f581836160a8565b999098509650505050505050565b60006107c0825490565b60006001600160e01b031982167f7965db0b0000000000000000000000000000000000000000000000000000000014806107c057506301ffc9a760e01b6001600160e01b03198316146107c0565b60008281526065602090815260408083206001600160a01b038516845290915290205460ff16610dfc57614799816001600160a01b0316601461537f565b6147a483602061537f565b6040516020016147b5929190615cea565b60408051601f198184030181529082905262461bcd60e51b825261082691600401615d6b565b60006147ee826301ffc9a760e01b61480e565b80156107c05750614807826001600160e01b031961480e565b1592915050565b604080516001600160e01b0319831660248083019190915282518083039091018152604490910182526020810180517bffffffffffffffffffffffffffffffffffffffffffffffffffffffff166301ffc9a760e01b179052905160009190829081906001600160a01b038716906175309061488a908690615cce565b6000604051808303818686fa925050503d80600081146148c6576040519150601f19603f3d011682016040523d82523d6000602084013e6148cb565b606091505b50915091506020815110156148e657600093505050506107c0565b8180156149025750808060200190518101906149029190615b0d565b9695505050505050565b6000815183511480156115365750508051602091820120825192909101919091201490565b60008281526065602090815260408083206001600160a01b038516845290915290205460ff16610dfc5760008281526065602090815260408083206001600160a01b03851684529091529020805460ff1916600117905561498f3390565b6001600160a01b0316816001600160a01b0316837f2f8788117e7eff1d82e926ec794901d17c78024a50270940304540a733656f0d60405160405180910390a45050565b6000611536836001600160a01b038416615560565b60006149f3826110d1565b6001600160a01b03808616600090815260cb60209081526040808320938816835292905220805491925090614a4757600160cc6000828254614a359190615e32565b909155505060048101805460ff191690555b82816000016000828254614a5b9190615e32565b9250508190555081816001016000828254614a769190615e32565b925050819055508260d46000828254614a8f9190615e32565b909155506132c190508585846155af565b60008281526065602090815260408083206001600160a01b038516845290915290205460ff1615610dfc5760008281526065602090815260408083206001600160a01b0385168085529252808320805460ff1916905551339285917ff6391f5c32d9c69d2a47ea670b442974b53935d1edc7fd64eb21e047a839171b9190a45050565b6000611536836001600160a01b0384166156e6565b6040517f9dc29fac000000000000000000000000000000000000000000000000000000008152306004820152602481018290526001600160a01b03831690639dc29fac90604401600060405180830381600087803b158015614b9957600080fd5b505af1158015614bad573d6000803e3d6000fd5b505050505050565b60ca5460405163a9059cbb60e01b81526001600160a01b038481166004830152602482018490529091169063a9059cbb90604401602060405180830381600087803b158015614c0357600080fd5b505af1158015614c17573d6000803e3d6000fd5b505050506040513d601f19601f82011682018060405250810190610ad49190615b0d565b6000826000018281548110614c5257614c52616175565b9060005260206000200154905092915050565b600080306001600160a01b031663be9a65556040518163ffffffff1660e01b815260040160206040518083038186803b158015614ca157600080fd5b505afa158015614cb5573d6000803e3d6000fd5b505050506040513d601f19601f82011682018060405250810190614cd99190615c4d565b83111580614d575750306001600160a01b031663efbe1c1c6040518163ffffffff1660e01b815260040160206040518083038186803b158015614d1b57600080fd5b505afa158015614d2f573d6000803e3d6000fd5b505050506040513d601f19601f82011682018060405250810190614d539190615c4d565b8410155b15614e4757306001600160a01b031663be9a65556040518163ffffffff1660e01b815260040160206040518083038186803b158015614d9557600080fd5b505afa158015614da9573d6000803e3d6000fd5b505050506040513d601f19601f82011682018060405250810190614dcd9190615c4d565b306001600160a01b031663be9a65556040518163ffffffff1660e01b815260040160206040518083038186803b158015614e0657600080fd5b505afa158015614e1a573d6000803e3d6000fd5b505050506040513d601f19601f82011682018060405250810190614e3e9190615c4d565b91509150615031565b6000306001600160a01b031663be9a65556040518163ffffffff1660e01b815260040160206040518083038186803b158015614e8257600080fd5b505afa158015614e96573d6000803e3d6000fd5b505050506040513d601f19601f82011682018060405250810190614eba9190615c4d565b8510614ec65784614f37565b306001600160a01b031663be9a65556040518163ffffffff1660e01b815260040160206040518083038186803b158015614eff57600080fd5b505afa158015614f13573d6000803e3d6000fd5b505050506040513d601f19601f82011682018060405250810190614f379190615c4d565b90506000306001600160a01b031663efbe1c1c6040518163ffffffff1660e01b815260040160206040518083038186803b158015614f7457600080fd5b505afa158015614f88573d6000803e3d6000fd5b505050506040513d601f19601f82011682018060405250810190614fac9190615c4d565b8511614fb85784615029565b306001600160a01b031663efbe1c1c6040518163ffffffff1660e01b815260040160206040518083038186803b158015614ff157600080fd5b505afa158015615005573d6000803e3d6000fd5b505050506040513d601f19601f820116820180604052508101906150299190615c4d565b919350909150505b9250929050565b6000806000306001600160a01b031663be9a65556040518163ffffffff1660e01b815260040160206040518083038186803b15801561507657600080fd5b505afa15801561508a573d6000803e3d6000fd5b505050506040513d601f19601f820116820180604052508101906150ae9190615c4d565b306001600160a01b031663efbe1c1c6040518163ffffffff1660e01b815260040160206040518083038186803b1580156150e757600080fd5b505afa1580156150fb573d6000803e3d6000fd5b505050506040513d601f19601f8201168201806040525081019061511f9190615c4d565b61512991906160a8565b90508061513e57600060019250925050615031565b6000816402540be400306001600160a01b031663be9a65556040518163ffffffff1660e01b815260040160206040518083038186803b15801561518057600080fd5b505afa158015615194573d6000803e3d6000fd5b505050506040513d601f19601f820116820180604052508101906151b89190615c4d565b6151c290896160a8565b6151cc919061604a565b6151d69190615e78565b90506000826402540be400306001600160a01b031663be9a65556040518163ffffffff1660e01b815260040160206040518083038186803b15801561521a57600080fd5b505afa15801561522e573d6000803e3d6000fd5b505050506040513d601f19601f820116820180604052508101906152529190615c4d565b61525c90896160a8565b615266919061604a565b6152709190615e78565b919791965090945050505050565b60008061528b60006157d9565b6152996402540be4006157d9565b6152a39190616069565b905060006152b0856157d9565b6152b9856157d9565b6152c39190616069565b90506000826152d76402540be40084615fc3565b6149029190615e4a565b6000806152fb6152f66402540be4008661604a565b613d51565b905060006153116152f66402540be4008661604a565b9050600061531f8284615e32565b61532e6402540be4008461604a565b6153389190615e78565b905060006402540be40061534c838a61604a565b6153569190615e78565b9050600061536560648a615e78565b905080821015615373578091505b50979650505050505050565b6060600061538e83600261604a565b615399906002615e32565b67ffffffffffffffff8111156153b1576153b161618b565b6040519080825280601f01601f1916602001820160405280156153db576020820181803683370190505b5090507f30000000000000000000000000000000000000000000000000000000000000008160008151811061541257615412616175565b60200101906001600160f81b031916908160001a9053507f78000000000000000000000000000000000000000000000000000000000000008160018151811061545d5761545d616175565b60200101906001600160f81b031916908160001a905350600061548184600261604a565b61548c906001615e32565b90505b6001811115615511577f303132333435363738396162636465660000000000000000000000000000000085600f16601081106154cd576154cd616175565b1a60f81b8282815181106154e3576154e3616175565b60200101906001600160f81b031916908160001a90535060049490941c9361550a816160eb565b905061548f565b5083156115365760405162461bcd60e51b815260206004820181905260248201527f537472696e67733a20686578206c656e67746820696e73756666696369656e746044820152606401610826565b60008181526001830160205260408120546155a7575081546001818101845560008481526020808220909301849055845484825282860190935260409020919091556107c0565b5060006107c0565b6040517f40c10f190000000000000000000000000000000000000000000000000000000081526001600160a01b038481166004830152602482018390528316906340c10f1990604401600060405180830381600087803b15801561561257600080fd5b505af1158015615626573d6000803e3d6000fd5b505050506001600160a01b038216600090815260cf60205260409020541580156156c057506000826001600160a01b0316633e0075a16040518163ffffffff1660e01b815260040160206040518083038186803b15801561568657600080fd5b505afa15801561569a573d6000803e3d6000fd5b505050506040513d601f19601f820116820180604052508101906156be9190615c4d565b115b15610ad45760db546001600160a01b038316600090815260cf6020526040902055505050565b600081815260018301602052604081205480156157cf57600061570a6001836160a8565b855490915060009061571e906001906160a8565b905081811461578357600086600001828154811061573e5761573e616175565b906000526020600020015490508087600001848154811061576157615761616175565b6000918252602080832090910192909255918252600188019052604090208390555b85548690806157945761579461615f565b6001900381819060005260206000200160009055905585600101600086815260200190815260200160002060009055600193505050506107c0565b60009150506107c0565b6000816402540be400816157ee600283615fb4565b6157f89190615fc3565b615803600284615fb4565b61580d9083615fc3565b60036158198186615fb4565b6158239190615e4a565b61582d9190616069565b6158379190615df3565b949350505050565b600082601f83011261585057600080fd5b8135602061586561586083615dcf565b615d9e565b80838252828201915082860187848660051b890101111561588557600080fd5b60005b858110156158a457813584529284019290840190600101615888565b5090979650505050505050565b6000602082840312156158c357600080fd5b8135611536816161a1565b6000602082840312156158e057600080fd5b8151611536816161a1565b600080604083850312156158fe57600080fd5b8235615909816161a1565b91506020830135615919816161a1565b809150509250929050565b60008060006060848603121561593957600080fd5b8335615944816161a1565b92506020840135615954816161a1565b929592945050506040919091013590565b60008060008060006080868803121561597d57600080fd5b8535615988816161a1565b94506020860135615998816161a1565b935060408601359250606086013567ffffffffffffffff808211156159bc57600080fd5b818801915088601f8301126159d057600080fd5b8135818111156159df57600080fd5b8960208285010111156159f157600080fd5b9699959850939650602001949392505050565b600080600060608486031215615a1957600080fd5b8335615a24816161a1565b925060208481013567ffffffffffffffff80821115615a4257600080fd5b818701915087601f830112615a5657600080fd5b8135615a6461586082615dcf565b8082825285820191508585018b878560051b8801011115615a8457600080fd5b600095505b83861015615ab0578035615a9c816161a1565b835260019590950194918601918601615a89565b50965050506040870135925080831115615ac957600080fd5b5050615ad78682870161583f565b9150509250925092565b60008060408385031215615af457600080fd5b8235615aff816161a1565b946020939093013593505050565b600060208284031215615b1f57600080fd5b8151801515811461153657600080fd5b600060208284031215615b4157600080fd5b5035919050565b60008060408385031215615b5b57600080fd5b823591506020830135615919816161a1565b60008060408385031215615b8057600080fd5b50508035926020909101359150565b600060208284031215615ba157600080fd5b81356001600160e01b03198116811461153657600080fd5b600060208284031215615bcb57600080fd5b815167ffffffffffffffff80821115615be357600080fd5b818401915084601f830112615bf757600080fd5b815181811115615c0957615c0961618b565b615c1c601f8201601f1916602001615d9e565b9150808252856020828501011115615c3357600080fd5b615c448160208401602086016160bf565b50949350505050565b600060208284031215615c5f57600080fd5b5051919050565b600080600080600080600060e0888a031215615c8157600080fd5b8735965060208801359550604088013594506060880135615ca1816161a1565b93506080880135615cb1816161a1565b9699959850939692959460a0840135945060c09093013592915050565b60008251615ce08184602087016160bf565b9190910192915050565b7f416363657373436f6e74726f6c3a206163636f756e7420000000000000000000815260008351615d228160178501602088016160bf565b7f206973206d697373696e6720726f6c65200000000000000000000000000000006017918401918201528351615d5f8160288401602088016160bf565b01602801949350505050565b6020815260008251806020840152615d8a8160408501602087016160bf565b601f01601f19169190910160400192915050565b604051601f8201601f1916810167ffffffffffffffff81118282101715615dc757615dc761618b565b604052919050565b600067ffffffffffffffff821115615de957615de961618b565b5060051b60200190565b6000808212826001600160ff1b0303841381151615615e1457615e1461611d565b82600160ff1b038412811615615e2c57615e2c61611d565b50500190565b60008219821115615e4557615e4561611d565b500190565b600082615e5957615e59616133565b600160ff1b821460001984141615615e7357615e7361611d565b500590565b600082615e8757615e87616133565b500490565b80825b6001808611615e9e5750612b38565b816001600160ff1b0304821115615eb757615eb761611d565b80861615615ec457918102915b9490941c938002615e8f565b6000828015615ee65760018114615ef057615ef9565b60019150506107c0565b829150506107c0565b5081615f07575060006107c0565b50600160008213808214615f20578015615f3e57615f57565b826001600160ff1b0304831115615f3957615f3961611d565b615f57565b826001600160ff1b0305831215615f5757615f5761611d565b5080831615615f635750805b615f738360011c83840283615e8c565b806001600160ff1b03048211600083131615615f9157615f9161611d565b80600160ff1b058212600083121615615fac57615fac61611d565b029392505050565b600061153660ff841683615ed0565b60006001600160ff1b03600084136000841385830485118282161615615feb57615feb61611d565b600160ff1b600087128682058812818416161561600a5761600a61611d565b600087129250878205871284841616156160265761602661611d565b8785058712818416161561603c5761603c61611d565b505050929093029392505050565b60008160001904831182151516156160645761606461611d565b500290565b600080831283600160ff1b018312811516156160875761608761611d565b836001600160ff1b030183138116156160a2576160a261611d565b50500390565b6000828210156160ba576160ba61611d565b500390565b60005b838110156160da5781810151838201526020016160c2565b83811115610d6e5750506000910152565b6000816160fa576160fa61611d565b506000190190565b60006000198214156161165761611661611d565b5060010190565b634e487b7160e01b600052601160045260246000fd5b634e487b7160e01b600052601260045260246000fd5b634e487b7160e01b600052602160045260246000fd5b634e487b7160e01b600052603160045260246000fd5b634e487b7160e01b600052603260045260246000fd5b634e487b7160e01b600052604160045260246000fd5b6001600160a01b0381168114612c8557600080fdfea2646970667358221220faba73c19709eda8c057d06d00157e119c8008b22e00c0ad140ec18563ac34c864736f6c63430008070033",
  "linkReferences": {},
  "deployedLinkReferences": {}
}