{
  "_format": "hh-sol-artifact-1",
  "contractName": "TalentToken",
  "sourceName": "contracts/TalentToken.sol",
  "abi": [
    {
      "anonymous": false,
      "inputs": [
        {
          "indexed": false,
          "internalType": "address",
          "name": "previousAdmin",
          "type": "address"
        },
        {
          "indexed": false,
          "internalType": "address",
          "name": "newAdmin",
          "type": "address"
        }
      ],
      "name": "AdminChanged",
      "type": "event"
    },
    {
      "anonymous": false,
      "inputs": [
        {
          "indexed": true,
          "internalType": "address",
          "name": "owner",
          "type": "address"
        },
        {
          "indexed": true,
          "internalType": "address",
          "name": "spender",
          "type": "address"
        },
        {
          "indexed": false,
          "internalType": "uint256",
          "name": "value",
          "type": "uint256"
        }
      ],
      "name": "Approval",
      "type": "event"
    },
    {
      "anonymous": false,
      "inputs": [
        {
          "indexed": true,
          "internalType": "address",
          "name": "beacon",
          "type": "address"
        }
      ],
      "name": "BeaconUpgraded",
      "type": "event"
    },
    {
      "anonymous": false,
      "inputs": [
        {
          "indexed": false,
          "internalType": "uint8",
          "name": "version",
          "type": "uint8"
        }
      ],
      "name": "Initialized",
      "type": "event"
    },
    {
      "anonymous": false,
      "inputs": [
        {
          "indexed": true,
          "internalType": "bytes32",
          "name": "role",
          "type": "bytes32"
        },
        {
          "indexed": true,
          "internalType": "bytes32",
          "name": "previousAdminRole",
          "type": "bytes32"
        },
        {
          "indexed": true,
          "internalType": "bytes32",
          "name": "newAdminRole",
          "type": "bytes32"
        }
      ],
      "name": "RoleAdminChanged",
      "type": "event"
    },
    {
      "anonymous": false,
      "inputs": [
        {
          "indexed": true,
          "internalType": "bytes32",
          "name": "role",
          "type": "bytes32"
        },
        {
          "indexed": true,
          "internalType": "address",
          "name": "account",
          "type": "address"
        },
        {
          "indexed": true,
          "internalType": "address",
          "name": "sender",
          "type": "address"
        }
      ],
      "name": "RoleGranted",
      "type": "event"
    },
    {
      "anonymous": false,
      "inputs": [
        {
          "indexed": true,
          "internalType": "bytes32",
          "name": "role",
          "type": "bytes32"
        },
        {
          "indexed": true,
          "internalType": "address",
          "name": "account",
          "type": "address"
        },
        {
          "indexed": true,
          "internalType": "address",
          "name": "sender",
          "type": "address"
        }
      ],
      "name": "RoleRevoked",
      "type": "event"
    },
    {
      "anonymous": false,
      "inputs": [
        {
          "indexed": true,
          "internalType": "address",
          "name": "from",
          "type": "address"
        },
        {
          "indexed": true,
          "internalType": "address",
          "name": "to",
          "type": "address"
        },
        {
          "indexed": false,
          "internalType": "uint256",
          "name": "value",
          "type": "uint256"
        }
      ],
      "name": "Transfer",
      "type": "event"
    },
    {
      "anonymous": false,
      "inputs": [
        {
          "indexed": true,
          "internalType": "address",
          "name": "implementation",
          "type": "address"
        }
      ],
      "name": "Upgraded",
      "type": "event"
    },
    {
      "inputs": [],
      "name": "DEFAULT_ADMIN_ROLE",
      "outputs": [
        {
          "internalType": "bytes32",
          "name": "",
          "type": "bytes32"
        }
      ],
      "stateMutability": "view",
      "type": "function"
    },
    {
      "inputs": [],
      "name": "MAX_SUPPLY",
      "outputs": [
        {
          "internalType": "uint256",
          "name": "",
          "type": "uint256"
        }
      ],
      "stateMutability": "view",
      "type": "function"
    },
    {
      "inputs": [],
      "name": "ROLE_MINTER",
      "outputs": [
        {
          "internalType": "bytes32",
          "name": "",
          "type": "bytes32"
        }
      ],
      "stateMutability": "view",
      "type": "function"
    },
    {
      "inputs": [],
      "name": "ROLE_TALENT",
      "outputs": [
        {
          "internalType": "bytes32",
          "name": "",
          "type": "bytes32"
        }
      ],
      "stateMutability": "view",
      "type": "function"
    },
    {
      "inputs": [
        {
          "internalType": "address",
          "name": "owner",
          "type": "address"
        },
        {
          "internalType": "address",
          "name": "spender",
          "type": "address"
        }
      ],
      "name": "allowance",
      "outputs": [
        {
          "internalType": "uint256",
          "name": "",
          "type": "uint256"
        }
      ],
      "stateMutability": "view",
      "type": "function"
    },
    {
      "inputs": [
        {
          "internalType": "address",
          "name": "spender",
          "type": "address"
        },
        {
          "internalType": "uint256",
          "name": "amount",
          "type": "uint256"
        }
      ],
      "name": "approve",
      "outputs": [
        {
          "internalType": "bool",
          "name": "",
          "type": "bool"
        }
      ],
      "stateMutability": "nonpayable",
      "type": "function"
    },
    {
      "inputs": [
        {
          "internalType": "address",
          "name": "spender",
          "type": "address"
        },
        {
          "internalType": "uint256",
          "name": "amount",
          "type": "uint256"
        }
      ],
      "name": "approveAndCall",
      "outputs": [
        {
          "internalType": "bool",
          "name": "",
          "type": "bool"
        }
      ],
      "stateMutability": "nonpayable",
      "type": "function"
    },
    {
      "inputs": [
        {
          "internalType": "address",
          "name": "spender",
          "type": "address"
        },
        {
          "internalType": "uint256",
          "name": "amount",
          "type": "uint256"
        },
        {
          "internalType": "bytes",
          "name": "data",
          "type": "bytes"
        }
      ],
      "name": "approveAndCall",
      "outputs": [
        {
          "internalType": "bool",
          "name": "",
          "type": "bool"
        }
      ],
      "stateMutability": "nonpayable",
      "type": "function"
    },
    {
      "inputs": [
        {
          "internalType": "address",
          "name": "account",
          "type": "address"
        }
      ],
      "name": "balanceOf",
      "outputs": [
        {
          "internalType": "uint256",
          "name": "",
          "type": "uint256"
        }
      ],
      "stateMutability": "view",
      "type": "function"
    },
    {
      "inputs": [
        {
          "internalType": "address",
          "name": "_from",
          "type": "address"
        },
        {
          "internalType": "uint256",
          "name": "_amount",
          "type": "uint256"
        }
      ],
      "name": "burn",
      "outputs": [],
      "stateMutability": "nonpayable",
      "type": "function"
    },
    {
      "inputs": [],
      "name": "decimals",
      "outputs": [
        {
          "internalType": "uint8",
          "name": "",
          "type": "uint8"
        }
      ],
      "stateMutability": "view",
      "type": "function"
    },
    {
      "inputs": [
        {
          "internalType": "address",
          "name": "spender",
          "type": "address"
        },
        {
          "internalType": "uint256",
          "name": "subtractedValue",
          "type": "uint256"
        }
      ],
      "name": "decreaseAllowance",
      "outputs": [
        {
          "internalType": "bool",
          "name": "",
          "type": "bool"
        }
      ],
      "stateMutability": "nonpayable",
      "type": "function"
    },
    {
      "inputs": [],
      "name": "disable",
      "outputs": [],
      "stateMutability": "nonpayable",
      "type": "function"
    },
    {
      "inputs": [],
      "name": "disabled",
      "outputs": [
        {
          "internalType": "bool",
          "name": "",
          "type": "bool"
        }
      ],
      "stateMutability": "view",
      "type": "function"
    },
    {
      "inputs": [
        {
          "internalType": "bytes32",
          "name": "role",
          "type": "bytes32"
        }
      ],
      "name": "getRoleAdmin",
      "outputs": [
        {
          "internalType": "bytes32",
          "name": "",
          "type": "bytes32"
        }
      ],
      "stateMutability": "view",
      "type": "function"
    },
    {
      "inputs": [
        {
          "internalType": "bytes32",
          "name": "role",
          "type": "bytes32"
        },
        {
          "internalType": "address",
          "name": "account",
          "type": "address"
        }
      ],
      "name": "grantRole",
      "outputs": [],
      "stateMutability": "nonpayable",
      "type": "function"
    },
    {
      "inputs": [
        {
          "internalType": "bytes32",
          "name": "role",
          "type": "bytes32"
        },
        {
          "internalType": "address",
          "name": "account",
          "type": "address"
        }
      ],
      "name": "hasRole",
      "outputs": [
        {
          "internalType": "bool",
          "name": "",
          "type": "bool"
        }
      ],
      "stateMutability": "view",
      "type": "function"
    },
    {
      "inputs": [
        {
          "internalType": "address",
          "name": "spender",
          "type": "address"
        },
        {
          "internalType": "uint256",
          "name": "addedValue",
          "type": "uint256"
        }
      ],
      "name": "increaseAllowance",
      "outputs": [
        {
          "internalType": "bool",
          "name": "",
          "type": "bool"
        }
      ],
      "stateMutability": "nonpayable",
      "type": "function"
    },
    {
      "inputs": [
        {
          "internalType": "string",
          "name": "_name",
          "type": "string"
        },
        {
          "internalType": "string",
          "name": "_symbol",
          "type": "string"
        },
        {
          "internalType": "uint256",
          "name": "_initialSupply",
          "type": "uint256"
        },
        {
          "internalType": "address",
          "name": "_talent",
          "type": "address"
        },
        {
          "internalType": "address",
          "name": "_minter",
          "type": "address"
        },
        {
          "internalType": "address",
          "name": "_admin",
          "type": "address"
        },
        {
          "internalType": "bool",
          "name": "_isMigrated",
          "type": "bool"
        }
      ],
      "name": "initialize",
      "outputs": [],
      "stateMutability": "nonpayable",
      "type": "function"
    },
    {
      "inputs": [],
      "name": "isMigrated",
      "outputs": [
        {
          "internalType": "bool",
          "name": "",
          "type": "bool"
        }
      ],
      "stateMutability": "view",
      "type": "function"
    },
    {
      "inputs": [
        {
          "internalType": "address",
          "name": "_to",
          "type": "address"
        },
        {
          "internalType": "uint256",
          "name": "_amount",
          "type": "uint256"
        }
      ],
      "name": "mint",
      "outputs": [],
      "stateMutability": "nonpayable",
      "type": "function"
    },
    {
      "inputs": [],
      "name": "mintingAvailability",
      "outputs": [
        {
          "internalType": "uint256",
          "name": "",
          "type": "uint256"
        }
      ],
      "stateMutability": "view",
      "type": "function"
    },
    {
      "inputs": [],
      "name": "mintingFinishedAt",
      "outputs": [
        {
          "internalType": "uint256",
          "name": "",
          "type": "uint256"
        }
      ],
      "stateMutability": "view",
      "type": "function"
    },
    {
      "inputs": [],
      "name": "name",
      "outputs": [
        {
          "internalType": "string",
          "name": "",
          "type": "string"
        }
      ],
      "stateMutability": "view",
      "type": "function"
    },
    {
      "inputs": [],
      "name": "proxiableUUID",
      "outputs": [
        {
          "internalType": "bytes32",
          "name": "",
          "type": "bytes32"
        }
      ],
      "stateMutability": "view",
      "type": "function"
    },
    {
      "inputs": [
        {
          "internalType": "bytes32",
          "name": "role",
          "type": "bytes32"
        },
        {
          "internalType": "address",
          "name": "account",
          "type": "address"
        }
      ],
      "name": "renounceRole",
      "outputs": [],
      "stateMutability": "nonpayable",
      "type": "function"
    },
    {
      "inputs": [
        {
          "internalType": "bytes32",
          "name": "role",
          "type": "bytes32"
        },
        {
          "internalType": "address",
          "name": "account",
          "type": "address"
        }
      ],
      "name": "revokeRole",
      "outputs": [],
      "stateMutability": "nonpayable",
      "type": "function"
    },
    {
      "inputs": [
        {
          "internalType": "bytes4",
          "name": "interfaceId",
          "type": "bytes4"
        }
      ],
      "name": "supportsInterface",
      "outputs": [
        {
          "internalType": "bool",
          "name": "",
          "type": "bool"
        }
      ],
      "stateMutability": "view",
      "type": "function"
    },
    {
      "inputs": [],
      "name": "symbol",
      "outputs": [
        {
          "internalType": "string",
          "name": "",
          "type": "string"
        }
      ],
      "stateMutability": "view",
      "type": "function"
    },
    {
      "inputs": [],
      "name": "talent",
      "outputs": [
        {
          "internalType": "address",
          "name": "",
          "type": "address"
        }
      ],
      "stateMutability": "view",
      "type": "function"
    },
    {
      "inputs": [],
      "name": "totalSupply",
      "outputs": [
        {
          "internalType": "uint256",
          "name": "",
          "type": "uint256"
        }
      ],
      "stateMutability": "view",
      "type": "function"
    },
    {
      "inputs": [
        {
          "internalType": "address",
          "name": "to",
          "type": "address"
        },
        {
          "internalType": "uint256",
          "name": "amount",
          "type": "uint256"
        }
      ],
      "name": "transfer",
      "outputs": [
        {
          "internalType": "bool",
          "name": "",
          "type": "bool"
        }
      ],
      "stateMutability": "nonpayable",
      "type": "function"
    },
    {
      "inputs": [
        {
          "internalType": "address",
          "name": "recipient",
          "type": "address"
        },
        {
          "internalType": "uint256",
          "name": "amount",
          "type": "uint256"
        }
      ],
      "name": "transferAndCall",
      "outputs": [
        {
          "internalType": "bool",
          "name": "",
          "type": "bool"
        }
      ],
      "stateMutability": "nonpayable",
      "type": "function"
    },
    {
      "inputs": [
        {
          "internalType": "address",
          "name": "recipient",
          "type": "address"
        },
        {
          "internalType": "uint256",
          "name": "amount",
          "type": "uint256"
        },
        {
          "internalType": "bytes",
          "name": "data",
          "type": "bytes"
        }
      ],
      "name": "transferAndCall",
      "outputs": [
        {
          "internalType": "bool",
          "name": "",
          "type": "bool"
        }
      ],
      "stateMutability": "nonpayable",
      "type": "function"
    },
    {
      "inputs": [
        {
          "internalType": "address",
          "name": "from",
          "type": "address"
        },
        {
          "internalType": "address",
          "name": "to",
          "type": "address"
        },
        {
          "internalType": "uint256",
          "name": "amount",
          "type": "uint256"
        }
      ],
      "name": "transferFrom",
      "outputs": [
        {
          "internalType": "bool",
          "name": "",
          "type": "bool"
        }
      ],
      "stateMutability": "nonpayable",
      "type": "function"
    },
    {
      "inputs": [
        {
          "internalType": "address",
          "name": "sender",
          "type": "address"
        },
        {
          "internalType": "address",
          "name": "recipient",
          "type": "address"
        },
        {
          "internalType": "uint256",
          "name": "amount",
          "type": "uint256"
        },
        {
          "internalType": "bytes",
          "name": "data",
          "type": "bytes"
        }
      ],
      "name": "transferFromAndCall",
      "outputs": [
        {
          "internalType": "bool",
          "name": "",
          "type": "bool"
        }
      ],
      "stateMutability": "nonpayable",
      "type": "function"
    },
    {
      "inputs": [
        {
          "internalType": "address",
          "name": "sender",
          "type": "address"
        },
        {
          "internalType": "address",
          "name": "recipient",
          "type": "address"
        },
        {
          "internalType": "uint256",
          "name": "amount",
          "type": "uint256"
        }
      ],
      "name": "transferFromAndCall",
      "outputs": [
        {
          "internalType": "bool",
          "name": "",
          "type": "bool"
        }
      ],
      "stateMutability": "nonpayable",
      "type": "function"
    },
    {
      "inputs": [
        {
          "internalType": "address",
          "name": "_newTalent",
          "type": "address"
        }
      ],
      "name": "transferTalentWallet",
      "outputs": [],
      "stateMutability": "nonpayable",
      "type": "function"
    },
    {
      "inputs": [
        {
          "internalType": "address",
          "name": "newImplementation",
          "type": "address"
        }
      ],
      "name": "upgradeTo",
      "outputs": [],
      "stateMutability": "nonpayable",
      "type": "function"
    },
    {
      "inputs": [
        {
          "internalType": "address",
          "name": "newImplementation",
          "type": "address"
        },
        {
          "internalType": "bytes",
          "name": "data",
          "type": "bytes"
        }
      ],
      "name": "upgradeToAndCall",
      "outputs": [],
      "stateMutability": "payable",
      "type": "function"
    }
  ],
  "bytecode": "0x60a06040523060601b60805234801561001757600080fd5b5060805160601c612e6061005260003960008181610ad701528181610b5c01528181610e3301528181610eb80152610f9e0152612e606000f3fe6080604052600436106102bb5760003560e01c806370a082311161016e578063aafa9371116100cb578063ccf006341161007f578063d8fbe99411610064578063d8fbe994146107b6578063dd62ed3e146107d6578063ee0708051461081c57600080fd5b8063ccf0063414610776578063d547741f1461079657600080fd5b8063c1d34b89116100b0578063c1d34b89146106fd578063c4daa5931461071d578063cae9ca511461075657600080fd5b8063aafa9371146106c4578063b06faf62146106db57600080fd5b806395d89b4111610122578063a217fddf11610107578063a217fddf1461066f578063a457c2d714610684578063a9059cbb146106a457600080fd5b806395d89b411461063a5780639dc29fac1461064f57600080fd5b806391d148541161015357806391d14854146105a057806392afc33a146105e657806393b040841461061a57600080fd5b806370a08231146105365780637a12083a1461056c57600080fd5b80633177029f1161021c5780633e0075a1116101d057806340c10f19116101b557806340c10f19146104ee5780634f1ef2861461050e57806352d1902d1461052157600080fd5b80633e0075a1146104b75780634000aea0146104ce57600080fd5b806336568abe1161020157806336568abe146104575780633659cfe614610477578063395093511461049757600080fd5b80633177029f1461041957806332cb6b0c1461043957600080fd5b806323b872dd116102735780632f2770db116102585780632f2770db146103c65780632f2ff15d146103dd578063313ce567146103fd57600080fd5b806323b872dd14610376578063248a9ca31461039657600080fd5b8063095ea7b3116102a4578063095ea7b3146103175780631296ee621461033757806318160ddd1461035757600080fd5b806301ffc9a7146102c057806306fdde03146102f5575b600080fd5b3480156102cc57600080fd5b506102e06102db366004612aac565b61083e565b60405190151581526020015b60405180910390f35b34801561030157600080fd5b5061030a61089d565b6040516102ec9190612ccc565b34801561032357600080fd5b506102e06103323660046129d6565b61092f565b34801561034357600080fd5b506102e06103523660046129d6565b610947565b34801561036357600080fd5b506099545b6040519081526020016102ec565b34801561038257600080fd5b506102e06103913660046128e4565b61096a565b3480156103a257600080fd5b506103686103b1366004612a57565b60009081526065602052604090206001015490565b3480156103d257600080fd5b506103db61098e565b005b3480156103e957600080fd5b506103db6103f8366004612a89565b6109f5565b34801561040957600080fd5b50604051601281526020016102ec565b34801561042557600080fd5b506102e06104343660046129d6565b610a1f565b34801561044557600080fd5b5061036869d3c21bcecceda100000081565b34801561046357600080fd5b506103db610472366004612a89565b610a3b565b34801561048357600080fd5b506103db610492366004612896565b610acc565b3480156104a357600080fd5b506102e06104b23660046129d6565b610c48565b3480156104c357600080fd5b5061036861012e5481565b3480156104da57600080fd5b506102e06104e9366004612a00565b610c87565b3480156104fa57600080fd5b506103db6105093660046129d6565b610cfb565b6103db61051c366004612988565b610e28565b34801561052d57600080fd5b50610368610f91565b34801561054257600080fd5b50610368610551366004612896565b6001600160a01b031660009081526097602052604090205490565b34801561057857600080fd5b506103687f8fad061cdace53638a92e8940b81545ab8169bcf17f044b6ab490075da827c9481565b3480156105ac57600080fd5b506102e06105bb366004612a89565b60009182526065602090815260408084206001600160a01b0393909316845291905290205460ff1690565b3480156105f257600080fd5b506103687ff0887ba65ee2024ea881d91b74c2450ef19e1557f03bed3ea9f16b037cbe2dc981565b34801561062657600080fd5b506103db610635366004612ae6565b611056565b34801561064657600080fd5b5061030a61129e565b34801561065b57600080fd5b506103db61066a3660046129d6565b6112ad565b34801561067b57600080fd5b50610368600081565b34801561069057600080fd5b506102e061069f3660046129d6565b61135e565b3480156106b057600080fd5b506102e06106bf3660046129d6565b611408565b3480156106d057600080fd5b5061036861012d5481565b3480156106e757600080fd5b5061012f546102e090600160a81b900460ff1681565b34801561070957600080fd5b506102e0610718366004612920565b611416565b34801561072957600080fd5b5061012f5461073e906001600160a01b031681565b6040516001600160a01b0390911681526020016102ec565b34801561076257600080fd5b506102e0610771366004612a00565b611493565b34801561078257600080fd5b506103db610791366004612896565b61151d565b3480156107a257600080fd5b506103db6107b1366004612a89565b611596565b3480156107c257600080fd5b506102e06107d13660046128e4565b6115bb565b3480156107e257600080fd5b506103686107f13660046128b1565b6001600160a01b03918216600090815260986020908152604080832093909416825291909152205490565b34801561082857600080fd5b5061012f546102e090600160a01b900460ff1681565b60006001600160e01b031982167f36372b0700000000000000000000000000000000000000000000000000000000148061088857506001600160e01b0319821663b0202a1160e01b145b806108975750610897826115d8565b92915050565b6060609a80546108ac90612d70565b80601f01602080910402602001604051908101604052809291908181526020018280546108d890612d70565b80156109255780601f106108fa57610100808354040283529160200191610925565b820191906000526020600020905b81548152906001019060200180831161090857829003601f168201915b5050505050905090565b60003361093d8185856115fd565b5060019392505050565b6000610963838360405180602001604052806000815250610c87565b9392505050565b600033610978858285611755565b6109838585856117e7565b506001949350505050565b7ff0887ba65ee2024ea881d91b74c2450ef19e1557f03bed3ea9f16b037cbe2dc96109b8816119fe565b5061012f80547fffffffffffffffffffffff00ffffffffffffffffffffffffffffffffffffffff16600160a01b1790554261012e55600061012d55565b600082815260656020526040902060010154610a10816119fe565b610a1a8383611a08565b505050565b6000610963838360405180602001604052806000815250611493565b6001600160a01b0381163314610abe5760405162461bcd60e51b815260206004820152602f60248201527f416363657373436f6e74726f6c3a2063616e206f6e6c792072656e6f756e636560448201527f20726f6c657320666f722073656c66000000000000000000000000000000000060648201526084015b60405180910390fd5b610ac88282611aaa565b5050565b306001600160a01b037f0000000000000000000000000000000000000000000000000000000000000000161415610b5a5760405162461bcd60e51b815260206004820152602c60248201527f46756e6374696f6e206d7573742062652063616c6c6564207468726f7567682060448201526b19195b1959d85d1958d85b1b60a21b6064820152608401610ab5565b7f00000000000000000000000000000000000000000000000000000000000000006001600160a01b0316610bb57f360894a13ba1a3210667c828492db98dca3e2076cc3735a920a3ca505d382bbc546001600160a01b031690565b6001600160a01b031614610c205760405162461bcd60e51b815260206004820152602c60248201527f46756e6374696f6e206d7573742062652063616c6c6564207468726f7567682060448201526b6163746976652070726f787960a01b6064820152608401610ab5565b610c2981611b2d565b60408051600080825260208201909252610c4591839190611b38565b50565b3360008181526098602090815260408083206001600160a01b038716845290915281205490919061093d9082908690610c82908790612cdf565b6115fd565b6000610c938484611408565b50610ca033858585611ce7565b61093d5760405162461bcd60e51b815260206004820152602660248201527f455243313336333a205f636865636b416e6443616c6c5472616e73666572207260448201526565766572747360d01b6064820152608401610ab5565b7ff0887ba65ee2024ea881d91b74c2450ef19e1557f03bed3ea9f16b037cbe2dc9610d25816119fe565b61012f54600160a01b900460ff1615610d805760405162461bcd60e51b815260206004820152601760248201527f546f6b656e20686173206265656e2064697361626c65640000000000000000006044820152606401610ab5565b8161012d541015610df85760405162461bcd60e51b8152602060048201526024808201527f5f616d6f756e742065786365656473206d696e74696e6720617661696c61626960448201527f6c697479000000000000000000000000000000000000000000000000000000006064820152608401610ab5565b8161012d6000828254610e0b9190612d16565b909155505061012d54610e1e574261012e555b610a1a8383611da5565b306001600160a01b037f0000000000000000000000000000000000000000000000000000000000000000161415610eb65760405162461bcd60e51b815260206004820152602c60248201527f46756e6374696f6e206d7573742062652063616c6c6564207468726f7567682060448201526b19195b1959d85d1958d85b1b60a21b6064820152608401610ab5565b7f00000000000000000000000000000000000000000000000000000000000000006001600160a01b0316610f117f360894a13ba1a3210667c828492db98dca3e2076cc3735a920a3ca505d382bbc546001600160a01b031690565b6001600160a01b031614610f7c5760405162461bcd60e51b815260206004820152602c60248201527f46756e6374696f6e206d7573742062652063616c6c6564207468726f7567682060448201526b6163746976652070726f787960a01b6064820152608401610ab5565b610f8582611b2d565b610ac882826001611b38565b6000306001600160a01b037f000000000000000000000000000000000000000000000000000000000000000016146110315760405162461bcd60e51b815260206004820152603860248201527f555550535570677261646561626c653a206d757374206e6f742062652063616c60448201527f6c6564207468726f7567682064656c656761746563616c6c00000000000000006064820152608401610ab5565b507f360894a13ba1a3210667c828492db98dca3e2076cc3735a920a3ca505d382bbc90565b600054610100900460ff16158080156110765750600054600160ff909116105b806110905750303b158015611090575060005460ff166001145b6111025760405162461bcd60e51b815260206004820152602e60248201527f496e697469616c697a61626c653a20636f6e747261637420697320616c72656160448201527f647920696e697469616c697a65640000000000000000000000000000000000006064820152608401610ab5565b6000805460ff191660011790558015611125576000805461ff0019166101001790555b61112d611e84565b611135611e84565b61113f8888611ef1565b611147611e84565b61012f805473ffffffffffffffffffffffffffffffffffffffff19166001600160a01b03871617905561117b600084611f83565b6111a57f8fad061cdace53638a92e8940b81545ab8169bcf17f044b6ab490075da827c9486611f83565b6111cf7ff0887ba65ee2024ea881d91b74c2450ef19e1557f03bed3ea9f16b037cbe2dc985611f83565b6111f97f8fad061cdace53638a92e8940b81545ab8169bcf17f044b6ab490075da827c9480611f8d565b6112038587611da5565b6112178669d3c21bcecceda1000000612d16565b61012d5561012f80547fffffffffffffffffffff0000ffffffffffffffffffffffffffffffffffffffff16600160a81b841515021790558015611294576000805461ff0019169055604051600181527f7f26b83ff96e1f2b6a682f133852f6798a09c465da95921460cefb38474024989060200160405180910390a15b5050505050505050565b6060609b80546108ac90612d70565b7ff0887ba65ee2024ea881d91b74c2450ef19e1557f03bed3ea9f16b037cbe2dc96112d7816119fe565b61012f54600160a01b900460ff16156113325760405162461bcd60e51b815260206004820152601760248201527f546f6b656e20686173206265656e2064697361626c65640000000000000000006044820152606401610ab5565b61012d5415611354578161012d600082825461134e9190612cdf565b90915550505b610a1a8383611fd8565b3360008181526098602090815260408083206001600160a01b0387168452909152812054909190838110156113fb5760405162461bcd60e51b815260206004820152602560248201527f45524332303a2064656372656173656420616c6c6f77616e63652062656c6f7760448201527f207a65726f0000000000000000000000000000000000000000000000000000006064820152608401610ab5565b61098382868684036115fd565b60003361093d8185856117e7565b600061142385858561096a565b5061143085858585611ce7565b6109835760405162461bcd60e51b815260206004820152602660248201527f455243313336333a205f636865636b416e6443616c6c5472616e73666572207260448201526565766572747360d01b6064820152608401610ab5565b949350505050565b600061149f848461092f565b506114ab84848461215d565b61093d5760405162461bcd60e51b815260206004820152602560248201527f455243313336333a205f636865636b416e6443616c6c417070726f766520726560448201527f76657274730000000000000000000000000000000000000000000000000000006064820152608401610ab5565b61012f805473ffffffffffffffffffffffffffffffffffffffff19166001600160a01b0383161790556115707f8fad061cdace53638a92e8940b81545ab8169bcf17f044b6ab490075da827c94826109f5565b610c457f8fad061cdace53638a92e8940b81545ab8169bcf17f044b6ab490075da827c94335b6000828152606560205260409020600101546115b1816119fe565b610a1a8383611aaa565b600061148b84848460405180602001604052806000815250611416565b60006001600160e01b0319821663b0202a1160e01b1480610897575061089782612218565b6001600160a01b0383166116785760405162461bcd60e51b8152602060048201526024808201527f45524332303a20617070726f76652066726f6d20746865207a65726f2061646460448201527f72657373000000000000000000000000000000000000000000000000000000006064820152608401610ab5565b6001600160a01b0382166116f45760405162461bcd60e51b815260206004820152602260248201527f45524332303a20617070726f766520746f20746865207a65726f20616464726560448201527f73730000000000000000000000000000000000000000000000000000000000006064820152608401610ab5565b6001600160a01b0383811660008181526098602090815260408083209487168084529482529182902085905590518481527f8c5be1e5ebec7d5bd14f71427d1e84f3dd0314c0f7b2291e5b200ac8c7c3b925910160405180910390a3505050565b6001600160a01b0383811660009081526098602090815260408083209386168352929052205460001981146117e157818110156117d45760405162461bcd60e51b815260206004820152601d60248201527f45524332303a20696e73756666696369656e7420616c6c6f77616e63650000006044820152606401610ab5565b6117e184848484036115fd565b50505050565b6001600160a01b0383166118635760405162461bcd60e51b815260206004820152602560248201527f45524332303a207472616e736665722066726f6d20746865207a65726f20616460448201527f64726573730000000000000000000000000000000000000000000000000000006064820152608401610ab5565b6001600160a01b0382166118df5760405162461bcd60e51b815260206004820152602360248201527f45524332303a207472616e7366657220746f20746865207a65726f206164647260448201527f65737300000000000000000000000000000000000000000000000000000000006064820152608401610ab5565b6001600160a01b0383166000908152609760205260409020548181101561196e5760405162461bcd60e51b815260206004820152602660248201527f45524332303a207472616e7366657220616d6f756e742065786365656473206260448201527f616c616e636500000000000000000000000000000000000000000000000000006064820152608401610ab5565b6001600160a01b038085166000908152609760205260408082208585039055918516815290812080548492906119a5908490612cdf565b92505081905550826001600160a01b0316846001600160a01b03167fddf252ad1be2c89b69c2b068fc378daa952ba7f163c4a11628f55a4df523b3ef846040516119f191815260200190565b60405180910390a36117e1565b610c45813361227f565b60008281526065602090815260408083206001600160a01b038516845290915290205460ff16610ac85760008281526065602090815260408083206001600160a01b03851684529091529020805460ff19166001179055611a663390565b6001600160a01b0316816001600160a01b0316837f2f8788117e7eff1d82e926ec794901d17c78024a50270940304540a733656f0d60405160405180910390a45050565b60008281526065602090815260408083206001600160a01b038516845290915290205460ff1615610ac85760008281526065602090815260408083206001600160a01b0385168085529252808320805460ff1916905551339285917ff6391f5c32d9c69d2a47ea670b442974b53935d1edc7fd64eb21e047a839171b9190a45050565b6000610ac8816119fe565b7f4910fdfa16fed3260ed0e7147f7cc6da11a60208b5b9406d12a635614ffd91435460ff1615611b6b57610a1a836122ff565b826001600160a01b03166352d1902d6040518163ffffffff1660e01b815260040160206040518083038186803b158015611ba457600080fd5b505afa925050508015611bd4575060408051601f3d908101601f19168201909252611bd191810190612a70565b60015b611c465760405162461bcd60e51b815260206004820152602e60248201527f45524331393637557067726164653a206e657720696d706c656d656e7461746960448201527f6f6e206973206e6f7420555550530000000000000000000000000000000000006064820152608401610ab5565b7f360894a13ba1a3210667c828492db98dca3e2076cc3735a920a3ca505d382bbc8114611cdb5760405162461bcd60e51b815260206004820152602960248201527f45524331393637557067726164653a20756e737570706f727465642070726f7860448201527f6961626c655555494400000000000000000000000000000000000000000000006064820152608401610ab5565b50610a1a8383836123ca565b60006001600160a01b0384163b611d005750600061148b565b604051632229f29760e21b81526000906001600160a01b038616906388a7ca5c90611d359033908a9089908990600401612c68565b602060405180830381600087803b158015611d4f57600080fd5b505af1158015611d63573d6000803e3d6000fd5b505050506040513d601f19601f82011682018060405250810190611d879190612ac9565b6001600160e01b031916632229f29760e21b14915050949350505050565b6001600160a01b038216611dfb5760405162461bcd60e51b815260206004820152601f60248201527f45524332303a206d696e7420746f20746865207a65726f2061646472657373006044820152606401610ab5565b8060996000828254611e0d9190612cdf565b90915550506001600160a01b03821660009081526097602052604081208054839290611e3a908490612cdf565b90915550506040518181526001600160a01b038316906000907fddf252ad1be2c89b69c2b068fc378daa952ba7f163c4a11628f55a4df523b3ef9060200160405180910390a35050565b600054610100900460ff16611eef5760405162461bcd60e51b815260206004820152602b60248201527f496e697469616c697a61626c653a20636f6e7472616374206973206e6f74206960448201526a6e697469616c697a696e6760a81b6064820152608401610ab5565b565b600054610100900460ff16611f5c5760405162461bcd60e51b815260206004820152602b60248201527f496e697469616c697a61626c653a20636f6e7472616374206973206e6f74206960448201526a6e697469616c697a696e6760a81b6064820152608401610ab5565b8151611f6f90609a906020850190612754565b508051610a1a90609b906020840190612754565b610ac88282611a08565b600082815260656020526040808220600101805490849055905190918391839186917fbd79b86ffe0ab8e8776151514217cd7cacd52c909f66475c3af44e129f0b00ff9190a4505050565b6001600160a01b0382166120545760405162461bcd60e51b815260206004820152602160248201527f45524332303a206275726e2066726f6d20746865207a65726f2061646472657360448201527f73000000000000000000000000000000000000000000000000000000000000006064820152608401610ab5565b6001600160a01b038216600090815260976020526040902054818110156120e35760405162461bcd60e51b815260206004820152602260248201527f45524332303a206275726e20616d6f756e7420657863656564732062616c616e60448201527f63650000000000000000000000000000000000000000000000000000000000006064820152608401610ab5565b6001600160a01b0383166000908152609760205260408120838303905560998054849290612112908490612d16565b90915550506040518281526000906001600160a01b038516907fddf252ad1be2c89b69c2b068fc378daa952ba7f163c4a11628f55a4df523b3ef9060200160405180910390a3505050565b60006001600160a01b0384163b61217657506000610963565b6040516307b04a2d60e41b81526000906001600160a01b03861690637b04a2d0906121a990339088908890600401612ca4565b602060405180830381600087803b1580156121c357600080fd5b505af11580156121d7573d6000803e3d6000fd5b505050506040513d601f19601f820116820180604052508101906121fb9190612ac9565b6001600160e01b0319166307b04a2d60e41b149150509392505050565b60006001600160e01b031982167f7965db0b00000000000000000000000000000000000000000000000000000000148061089757507f01ffc9a7000000000000000000000000000000000000000000000000000000006001600160e01b0319831614610897565b60008281526065602090815260408083206001600160a01b038516845290915290205460ff16610ac8576122bd816001600160a01b031660146123ef565b6122c88360206123ef565b6040516020016122d9929190612be7565b60408051601f198184030181529082905262461bcd60e51b8252610ab591600401612ccc565b6001600160a01b0381163b61237c5760405162461bcd60e51b815260206004820152602d60248201527f455243313936373a206e657720696d706c656d656e746174696f6e206973206e60448201527f6f74206120636f6e7472616374000000000000000000000000000000000000006064820152608401610ab5565b7f360894a13ba1a3210667c828492db98dca3e2076cc3735a920a3ca505d382bbc805473ffffffffffffffffffffffffffffffffffffffff19166001600160a01b0392909216919091179055565b6123d3836125d0565b6000825111806123e05750805b15610a1a576117e18383612610565b606060006123fe836002612cf7565b612409906002612cdf565b67ffffffffffffffff81111561242157612421612dd7565b6040519080825280601f01601f19166020018201604052801561244b576020820181803683370190505b5090507f30000000000000000000000000000000000000000000000000000000000000008160008151811061248257612482612dc1565b60200101906001600160f81b031916908160001a9053507f7800000000000000000000000000000000000000000000000000000000000000816001815181106124cd576124cd612dc1565b60200101906001600160f81b031916908160001a90535060006124f1846002612cf7565b6124fc906001612cdf565b90505b6001811115612581577f303132333435363738396162636465660000000000000000000000000000000085600f166010811061253d5761253d612dc1565b1a60f81b82828151811061255357612553612dc1565b60200101906001600160f81b031916908160001a90535060049490941c9361257a81612d59565b90506124ff565b5083156109635760405162461bcd60e51b815260206004820181905260248201527f537472696e67733a20686578206c656e67746820696e73756666696369656e746044820152606401610ab5565b6125d9816122ff565b6040516001600160a01b038216907fbc7cd75a20ee27fd9adebab32041f755214dbc6bffa90cc0225b39da2e5c2d3b90600090a250565b60606001600160a01b0383163b61268f5760405162461bcd60e51b815260206004820152602660248201527f416464726573733a2064656c65676174652063616c6c20746f206e6f6e2d636f60448201527f6e747261637400000000000000000000000000000000000000000000000000006064820152608401610ab5565b600080846001600160a01b0316846040516126aa9190612bcb565b600060405180830381855af49150503d80600081146126e5576040519150601f19603f3d011682016040523d82523d6000602084013e6126ea565b606091505b50915091506127128282604051806060016040528060278152602001612e046027913961271b565b95945050505050565b6060831561272a575081610963565b82511561273a5782518084602001fd5b8160405162461bcd60e51b8152600401610ab59190612ccc565b82805461276090612d70565b90600052602060002090601f01602090048101928261278257600085556127c8565b82601f1061279b57805160ff19168380011785556127c8565b828001600101855582156127c8579182015b828111156127c85782518255916020019190600101906127ad565b506127d49291506127d8565b5090565b5b808211156127d457600081556001016127d9565b80356001600160a01b038116811461280457600080fd5b919050565b600082601f83011261281a57600080fd5b813567ffffffffffffffff8082111561283557612835612dd7565b604051601f8301601f19908116603f0116810190828211818310171561285d5761285d612dd7565b8160405283815286602085880101111561287657600080fd5b836020870160208301376000602085830101528094505050505092915050565b6000602082840312156128a857600080fd5b610963826127ed565b600080604083850312156128c457600080fd5b6128cd836127ed565b91506128db602084016127ed565b90509250929050565b6000806000606084860312156128f957600080fd5b612902846127ed565b9250612910602085016127ed565b9150604084013590509250925092565b6000806000806080858703121561293657600080fd5b61293f856127ed565b935061294d602086016127ed565b925060408501359150606085013567ffffffffffffffff81111561297057600080fd5b61297c87828801612809565b91505092959194509250565b6000806040838503121561299b57600080fd5b6129a4836127ed565b9150602083013567ffffffffffffffff8111156129c057600080fd5b6129cc85828601612809565b9150509250929050565b600080604083850312156129e957600080fd5b6129f2836127ed565b946020939093013593505050565b600080600060608486031215612a1557600080fd5b612a1e846127ed565b925060208401359150604084013567ffffffffffffffff811115612a4157600080fd5b612a4d86828701612809565b9150509250925092565b600060208284031215612a6957600080fd5b5035919050565b600060208284031215612a8257600080fd5b5051919050565b60008060408385031215612a9c57600080fd5b823591506128db602084016127ed565b600060208284031215612abe57600080fd5b813561096381612ded565b600060208284031215612adb57600080fd5b815161096381612ded565b600080600080600080600060e0888a031215612b0157600080fd5b873567ffffffffffffffff80821115612b1957600080fd5b612b258b838c01612809565b985060208a0135915080821115612b3b57600080fd5b50612b488a828b01612809565b96505060408801359450612b5e606089016127ed565b9350612b6c608089016127ed565b9250612b7a60a089016127ed565b915060c08801358015158114612b8f57600080fd5b8091505092959891949750929550565b60008151808452612bb7816020860160208601612d2d565b601f01601f19169290920160200192915050565b60008251612bdd818460208701612d2d565b9190910192915050565b7f416363657373436f6e74726f6c3a206163636f756e7420000000000000000000815260008351612c1f816017850160208801612d2d565b7f206973206d697373696e6720726f6c65200000000000000000000000000000006017918401918201528351612c5c816028840160208801612d2d565b01602801949350505050565b60006001600160a01b03808716835280861660208401525083604083015260806060830152612c9a6080830184612b9f565b9695505050505050565b6001600160a01b03841681528260208201526060604082015260006127126060830184612b9f565b6020815260006109636020830184612b9f565b60008219821115612cf257612cf2612dab565b500190565b6000816000190483118215151615612d1157612d11612dab565b500290565b600082821015612d2857612d28612dab565b500390565b60005b83811015612d48578181015183820152602001612d30565b838111156117e15750506000910152565b600081612d6857612d68612dab565b506000190190565b600181811c90821680612d8457607f821691505b60208210811415612da557634e487b7160e01b600052602260045260246000fd5b50919050565b634e487b7160e01b600052601160045260246000fd5b634e487b7160e01b600052603260045260246000fd5b634e487b7160e01b600052604160045260246000fd5b6001600160e01b031981168114610c4557600080fdfe416464726573733a206c6f772d6c6576656c2064656c65676174652063616c6c206661696c6564a264697066735822122068f34f3d2210ad1861c601488662075c48e262a8cd5c0a7cdcbe7a1e2e80eab364736f6c63430008070033",
  "linkReferences": {},
  "deployedLinkReferences": {}
}